:020000040200F8
:1000000060680D22C13B0002CD390002BD3B0002F9
:10001000BD3B0002BD3B0002BD3B0002BD3B0002F8
:10002000000000000000000000000000BD3B0002D6
:10003000BD3B000200000000BD3B0002BD3B0002D2
:10004000E93500025D190002B1190002051A00022B
:10005000E91A00024D1B0002A11B0002392900020F
:10006000892300020925000215260002F12600025C
:10007000B12C0002000000000000000000000000A1
:100080000000000000000000000000000000000070
:100090000000000000000000000000000000000060
:1000A0000000000000000000000000000000000050
:1000B0000000000000000000000000000000000040
:1000C0000000000000000000000000000000000030
:1000D0000000000000000000000000000000000020
:1000E0000000000000000000000000000000000010
:1000F0000000000000000000000000000000000000
:1001000000000000000000000000000000000000EF
:1001100000000000000000000000000000000000DF
:1001200000000000000000000000000000000000CF
:1001300000000000000000000000000000000000BF
:1001400000000000000000000000000000000000AF
:10015000000000000000000000000000000000009F
:10016000000000000000000000000000000000008F
:10017000000000000000000000000000000000007F
:10018000000000000000000000000000000000006F
:10019000000000000000000000000000000000005F
:1001A000000000000000000000000000000000004F
:1001B000000000000000000000000000000000003F
:1001C0000348044B834202D0034B03B118477047E6
:1001D000540000225400002200000000064B074992
:1001E000C91A891048BF0131491003D0044B0BB123
:1001F00001481847704700BF5400002254000022F5
:100200000000000010B5064C237843B9FFF7D8FF73
:10021000044B13B10448AFF300800123237010BDD9
:100220008000002200000000B854000208B5054B11
:100230001BB105490548AFF30080BDE80840FFF752
:10024000CDBF00BF0000000084000022B8540002AF
:100250002DE9F041D0E902850446A8EB0507406886
:1002600097422844154408D80E463A46A5EB08059F
:1002700003F0B0FD2A466068F11903F0ABFDBFF34F
:100280005F8FE560BDE8F0812DE9F8434FF000098C
:10029000064688461746D0E902243369151B9C425E
:1002A00003F1FF3125BF03F1FF339B180B1B1B1B11
:1002B000BD4228BF3D469D4228BF1D46706841464D
:1002C0002A46204403F086FDB2682C44A24208BFAF
:1002D0000024A944A8447F1BBFF35F8FF460002F64
:1002E000DBD14846BDE8F883F8B5154CA8220021BB
:1002F000204603F067FD4FF4006600230320102220
:100300001049114F114D20616061A161E7612662C2
:10031000A3626362E36221666566A2662367E366A1
:100320006367BFF35F8F0A4B42F001E01846C21AC1
:1003300013F9011DA1540FF007C0BFF35F8FF8BD83
:10034000B0080022583E0002B0000022A0000022A7
:100350001046000270B51D4D441C00EB400005EB3B
:10036000C00304EB440405EBC400DC6A8C46012C9A
:10037000164612D0022C0CD0FCB99A6A596A8A42ED
:100380009CBF1B6AD218013A511A8E4218D92046D6
:1003900070BDBDE87040FFF777BF9A6A5C6AA24201
:1003A0009CBF1B6AD218013A141BB44228BF3446C2
:1003B0002246FFF74DFF204670BD0024204670BD49
:1003C00032466146FFF744FF3446E0E7B0080022BA
:1003D000F8B50B4B04461B780D46532B164601D03F
:1003E000FFF782FFEFF311874FF0200181F31188AF
:1003F000324629462046FFF7ADFF87F31188F8BD46
:10040000B0080022D0E9013210B50446501C9842D1
:1004100007D8236899540246E16863680131C4E94A
:1004200002019A4200D010BD21682069FFF7D0FF79
:10043000A368984215BF4FF0FF330023E360A36029
:1004400010BD00BF2DE9F84F91428A46DDE90A84CC
:10045000154683461E466AD30B460127B3FBF5F3C8
:100460009D4207F10107F9D9B74238BF374614F06A
:10047000010902D1B8F1000F40D1DBF80C30002B9C
:100480002CDB0124002E14BF3346234601E005FB7C
:1004900004F4013BFBD1BAFBF4F39D4205D805FB04
:1004A00004F4BAFBF4F39D42F9D9224E06E0AC42C3
:1004B000B4FBF5F30CD31C46BAFBF3F3F1565846E4
:1004C00004FB13AAFFF79EFFDBF80C30002BEEDADB
:1004D000B9F1000F02D0B8F1000F09D1BDE8F88FD3
:1004E00020215846FFF78EFFDBF80C30002BF5DBA0
:1004F000B84508F1FF38F3D8BDE8F88FA30711D449
:1005000020240CE021465846FFF77CFFDBF80C3036
:1005100008F1FF38002BE1DBB8F1000FAFD0B84590
:10052000F0D8AAE7002E0CBF30242024F7E70127DB
:100530009AE700BF184600022DE9F04F002340253E
:100540009BB00DF1280A81460C461746CDE90553AC
:10055000CDE90730CDF810A006E004A8FFF752FF60
:10056000079B002BC0F2AD8014F9011B002900F09D
:10057000A0802529F1D10026234613F9012BA2F1F1
:1005800023010D2908D8DFE801F07F0707070707D7
:1005900007077B0783070777A2F13001C9B2092952
:1005A0004FF000050FD805EB850502EB450593F9E3
:1005B00000201C46A2F13001C9B20929A5F130057D
:1005C00003F10103EFD92E2A00F0FE804FF0000B5B
:1005D00094F9001021F0040068281C465CD02529FD
:1005E000BBD05839CBB2202BBAD82029B8D801A318
:1005F00053F821F0CB0600026105000261050002FC
:10060000610500026105000261050002610500024A
:10061000610500026105000261050002610500023A
:10062000B50700024D0700026105000261050002E6
:10063000610500026105000261050002610500021A
:10064000610500026105000261050002610500020A
:100650006105000215070002610500026105000244
:10066000E70600026105000233070002610500028F
:1006700061050002CB0600021C4646F002067BE73D
:100680001C4646F0040677E71C4646F0080673E76A
:100690001C4646F001066FE714F9011B21F0040324
:1006A000682B9CD114F9011B21F00403682B96D10F
:1006B000F2E7079B002B04DD069C002C40F09D8098
:1006C000234418461BB0BDE8F08F102238685B4603
:1006D00001680430CDE9005638600DEB0200FFF7E9
:1006E000B1FE079B3DE73B68784A191D39601D68DC
:1006F000002D08BF154615F9011B00293FF430AF46
:1007000004A8FFF77FFE079B002BF4DA18461BB006
:10071000BDE8F08F3A680823116804323A6000207F
:100720001022CDE900300DEB0200FFF78BFE079B96
:1007300017E738685B4601680430CDE900560A22A5
:10074000386004A8FFF77EFE079B0AE73B684FF07E
:1007500001081A6804333B6082EAE273A3EBE27398
:10076000092B039209DD5A481946A0FB03C36329EC
:1007700008F101084FEAD303F6DCD84538BFD84664
:10078000002D43D1079900250B46002999DB039BD7
:10079000002B65DB73076FD406F00303022B74D0C4
:1007A0005B460A22CDE90056039904A8FFF74AFEEA
:1007B000079BD6E63B6804A81A1D93F900103A601F
:1007C000FFF720FE079BCCE694F90110A1F130025F
:1007D000D2B2092A55D81C464FF0000B0BEB8B0206
:1007E00001EB420214F9011FA2F1300BA1F1300319
:1007F000DBB2092BF2D9631CECE62246514648468F
:100800000393FFF7E5FD039B23445AE7039A06F0A1
:100810000203002A1ADB720718D4002B4CD0BBF15C
:10082000000F10D0F0070CD50DE0202104A8FFF731
:10083000E9FD0799013D00290B46FFF642AF002D67
:10084000A3D0A845F1D307990B469EE7013D13B10C
:10085000BBF1000FF7D0F207F5D4002DF1D191E7ED
:100860005B422D2104A80393FFF7CCFD07990029D3
:100870000B46FFF626AF8FE72B2104A8FFF7C2FD3A
:10088000F4E74FF0000B0133A4E6BBF1000F87D172
:10089000002D85D0454516D9302104A8FFF7B2FDBB
:1008A0000799013D00290B46FFF60BAF002DF1D152
:1008B0000029FFF606AF73E7F107C2D5079B002BAF
:1008C000BFF66EAFFDE60B46F2E700BF643E0002E6
:1008D000CDCCCCCC0EB400B582B003AB53F8041B26
:1008E00001AA0193FFF728FE02B05DF804EB03B004
:1008F000704700BF254A2DE9F043508B138B244FDE
:10090000D269244C3B8000FB03F3234D2260234A31
:1009100083B01360288001222149224802F02EFA78
:1009200000B100BE00212E881F4D8DF80710A5FBD9
:100930000635C5F3C70536B31C4B4FF00F091846F3
:1009400088463F88246807EB030CB1FBF5F3DBB264
:100950008DF807808DF807309DF807300F2B88BF82
:100960008DF8079003464FB1ACEB000E4EF001E05E
:100970009DF8072003F8012B0FF007C00131B142A9
:100980002044A444E1D103B0BDE8F0838C4C0002C4
:100990006209002258090022600900225C09002235
:1009A00000000022C8610D2289888888C0090022C1
:1009B000344B2DE9F0479C88DD88334A05FB04F869
:1009C000324F15809A681E68314B3A604FEA8802B0
:1009D0001A60304B30491E60304B06EB081888B067
:1009E0000C80C3F80080002D48D033464FF000093A
:1009F0004FEA840A2CB118465246002103F0E2F96E
:100A000003463A6809F10109A94503EB8203F1D1D4
:100A10004FF0000924B152460021404603F0D2F9BC
:100A20003B6809F10109A94508EB8308F2D1EE46BC
:100A30004FF00008DFF868904FEAD40CB9E80F00D7
:100A4000AEE80F0099E80F008EE80F007CB100229D
:100A500044F001E0311FB2FBFCF308A800EB830374
:100A600053F8203C013241F8043F0FF00DC03B68C1
:100A700008F10108A84506EB8306E7D108B0BDE8F8
:100A8000F08700BF8C4C0002740900226C09002220
:100A900070090022680900227609002264090022F8
:100AA0002846000210B10279014B1A70704700BF4E
:100AB0007809002208B500F075F9FFF71BFFFFF772
:100AC00077FF00BFFDE700BF022800D07047024B50
:100AD0000248596801F018BA804C0002C0610D222A
:100AE00038B50D462F4A304904460020FFF7F2FE84
:100AF00029460020FFF7EEFE2C4803688BB92C48EE
:100B00000378FBB92B480368002B2CD12A48C36813
:100B1000002B39D1224629490020FFF7DBFE00BE19
:100B200038BD02F073F80028E9D01E4A1E490020A3
:100B3000FFF7D0FE00202249FFF7CCFE1C480378C7
:100B4000002BDFD002F03AF90028DBD0154A164915
:100B50000020FFF7BFFE00201A49FFF7BBFE154833
:100B60000368002BD2D001F0C1FE0028CED00D4A80
:100B70000D490020FFF7AEFE00201349FFF7AAFE43
:100B80000D48C368002BC5D001F08EFB0028C1D0F2
:100B9000044A05490020FFF79DFE0C490020FFF79D
:100BA00099FEB7E7484600026C3E000248620D22FB
:100BB000C8610D22F8610D2208620D22003F00027B
:100BC000883E0002A03E0002BC3E0002E03E000261
:100BD000C27AFD2A36D02DE9F04106461A4D1B4F48
:100BE000DFF86C8084B0441C08E04FF47A713078F0
:100BF00002F0ACFEE27D0D34FD2A1CD00023E07A29
:100C000014F8011CFE2ACDE90033029403938DF8F9
:100C100001208DF80200ADF80410E6D06946384690
:100C20002B7000F07DFA48B92B78002BFCD0E27DC8
:100C30000D34FD2AE2D104B0BDE8F0814146FFF752
:100C40004FFFF1E7704700BF7B090022D8610D22FA
:100C5000203F000208B51149114801F0C7FE40B914
:100C6000104802F06DF860B90F4801F01DFE80B920
:100C700008BD0E49FFF734FF0A4802F061F800286A
:100C8000F2D00B49FFF72CFF074801F00DFE0028BA
:100C9000EED0BDE808400749FFF722BF80090022D7
:100CA00048620D22C8610D22F8610D22483F000202
:100CB000683F0002883F0002044B1A7843689A425A
:100CC00002D10122024B1A70704700BFFC4D000296
:100CD0007A09002210B51D4C002240F60121204661
:100CE00000F0CAFF042240F20A51204601F01CF92C
:100CF0000121C82002F02AFE012240F20A512046BA
:100D000000F0BAFF0121C82002F020FE012240F6C7
:100D10000121204600F0B0FF4FF47A710A2002F062
:100D200015FE002240F20A51204600F0A5FF4FF4C4
:100D30007A71642002F00AFE2046BDE810404FF4AC
:100D4000A04240F20A5101F0EFB800BFC0610D228D
:100D50000378032B02D10122014B1A70704700BFA8
:100D60007C090022037843B1052B05D1074A41686D
:100D700013680B431360704770474368B3F5807F77
:100D8000F9D10122024B1A70704700BF8C09002272
:100D90007B090022037913B90122014B1A707047B5
:100DA0007909002270B5002484B003A8039402F0EE
:100DB000BFFD9DF80D609DF80E50244A9DF80F3040
:100DC00023492046CDE90056FFF784FD21492046FE
:100DD000FFF780FD20492046FFF77CFD012002F04F
:100DE00087FE1E491E4802F0EFF9B8B91D491E489A
:100DF00001F070FED8B9FFF76DFF1C491C4801F0E7
:100E000011FAF8B91B48FFF7E3FE1B491B4801F034
:100E100009FD80B9FFF71EFF04B070BD1849FFF748
:100E20005FFE1049104801F055FE0028E3D0154937
:100E3000FFF756FEDFE71449FFF752FEFFF70AFF00
:100E400004B070BD1149FFF74BFEDBE7B43F000271
:100E5000B83F0002D8410002244400028C4C00023A
:100E6000C8610D22404E000248620D22104E000261
:100E700008620D2258460002FC4D0002F8610D2266
:100E80006445000290450002D4450002B0450002CE
:100E900008B5FFF70FFE002008BD00BF084B00217A
:100EA0001A6A22F001021A629A6842F001029A60FC
:100EB0001A6922F001021A61034608461960704758
:100EC000006C3440354B30B51A6A93F82430C2F3C5
:100ED00003344FEA123E03F00F028446DDB244EAC7
:100EE00002002F4B00071B6811D528074BD40120A7
:100EF0001EF0080F00FA02F04DD003240EF0070296
:100F000004FA02F200FB03F3B3FBF2F202E003FA8D
:100F100002F2E2402348244BA0FB0202920C186824
:100F2000013AD2B262F3070018601A6942F0010276
:100F30001A61DA69D207FCD50A680C795A60D86858
:100F4000194A64F30400D860986820F001009860A2
:100F5000D369DB05FCD58B68144C1868C0F312000C
:100F60005062187990625879D06298681063D86896
:100F700050631B7C00209363136A43F001031362E8
:100F8000CCE9004130BD032005F007051EF0080F35
:100F900000FA05F0B1D10122A240B3E700E0014020
:100FA00058640D2283DE1B43006C34405049504D81
:100FB00030B511F0020408BF2346027990F805E02D
:100FC0001CBF82F001031B07CD0744BF8EF0010553
:100FD00043EA0563BEF1000F01F0010C18BF4FF0AA
:100FE000010C90F806E080F805C041EA0E0181711D
:100FF00012B9221E18BF0122024902710020C1F855
:101000000C3130BD0060344030B54FF0000E034667
:10101000027911F002054FEA427008BF7046CC0712
:1010200093F805C005D5CCF10004F44604F0007433
:10103000204383F805C012B1B5FA85F25209054C78
:101040001A71C4F80C019A79002022EA01029A71FF
:1010500030BD00BF0060344030B4074B00201D6934
:10106000D3F82042D3F824220D80C1E9014230BCDC
:10107000C3F82822704700BF0060344030B544698F
:1010800005468C4685B0ACB194E80F000DF1100E0A
:101090000EE90F009CE80F0084E80F002046EB6883
:1010A00098476C6924B104AB13E90F0084E80F0082
:1010B00005B030BD0C46F1E7072310B584B08DF8BC
:1010C00000300369694604460393FFF7D7FF124ACD
:1010D0001369D8071CD41369D90619D4A0680F491D
:1010E000837A047A9B02407A43EA042343EA40234A
:1010F00043F00103C2F8003401E00B781BB9D2F8C9
:1011000010341B07F9D5012300200B7004B010BD6B
:10111000082004B010BD00BF0060344068620D229A
:10112000414B1A69D00775D42DE9F04F1B69C3F301
:101130000017DB0673D4887891F801B010F04005F1
:101140000CBF012200220BF00F03384E082B4FEA90
:10115000C21C8CBF4FF0010A4FF0000A8B888C68CC
:1011600006EBC21245D95FFA83F803F47F4EB5F15E
:10117000000918BF4FF001094FF080770B784FEA54
:101180000B4B9B050BF47C1B03F4400300F00300A6
:1011900043EA0B0343EA806343EA0A6343EA496391
:1011A00043EA080343EA0E034CF8063057608E7892
:1011B00006F02003002B14BF0127002704D016F0EF
:1011C0000F0618BF01263306C968002818BF0C4651
:1011D00043EA87539360D460ADB94FF40001124BDA
:1011E000134AC3F8C015104B0020C3F80026BDE811
:1011F000F08F8BB1012B94F8008013D094F801E0AC
:101200004FEA0E2EB3E7084B09494FF40002C3F82A
:10121000C015E8E7082070479E469846A7E70820D3
:10122000BDE8F08FBE46A2E70060344080673440DE
:10123000010080000D4AD2F81034590714D5D2F8B5
:1012400000340B4943F00203C2F8003401E00B788C
:101250001BB1D2F810349B07F9D50022034B0A705A
:10126000D3F81024C3F814240020704700603440E1
:1012700068620D22F0B5DB4B85B0D3F850345B06C5
:1012800040F166820023D84ED84A337005460C469A
:1012900081601370EFF31087012181F31088D44B24
:1012A0009A6822F480629A609B68962002F04EFB56
:1012B00087F310882368D3E90001FFF703FE074690
:1012C000002840F04282CB4AD2F8003143F48073C8
:1012D000C2F80031D2F8103143F00103C2F81031E6
:1012E000D2F8143103F01F031F2BF9D140F6FC7024
:1012F000E37A013B43F44073C2F80031217BD2F81A
:10130000083161F30703C2F8083194F82E3094F8DD
:101310002C105B0743EA0143218D94F830C00B4346
:1013200094F82F1043EA817394F82D1043EACC739C
:10133000090501F47001D4F804C00B43C2F8203150
:10134000DCF80430AB491B0403F47F0EDCF80030FA
:1013500000EA8303DCF8080043EA0E0343EA006373
:10136000C2F81433DCF80C30C3F30903C2F81833A5
:10137000E369C2F81032236AC2F81432636AC2F811
:1013800018322369C2F8E0326369C2F8E432A36913
:10139000C2F8E832E07AD2F81031400243F48033E8
:1013A000A0F58070C2F81031D1F8143103F4034372
:1013B0008342F9D1D1F810318E4A23F48033C1F839
:1013C0001031D1F8103123F00103C1F81031D2F8F7
:1013D000143113F01F03FAD1A16EDFF824C2C868DC
:1013E000C2F808020869C2F808034869C2F828036D
:1013F0008869C2F81804C869C2F8D805086AC2F832
:101400001806C2F8D4C5C2F814C6DFF8F8C1206EB9
:10141000C2F814C4DFF8F0C1C2F804C26B61636E95
:10142000E8602B6191F901000B7800284FEA031363
:10143000DBB2C0F2918100F1604202F5614282F8B4
:1014400000336D4A6D4B00F5C65C42F8205053F8EE
:101450002CE02EF4803E43F82CE053F82C30BFF300
:101460005F8F4FF0010C43099B0000F01F0003F158
:10147000604303F561430CFA00F0C3F88001186083
:1014800091F903008B7800284FEA0313DBB2C0F216
:10149000878100F1604C0CF5614C8CF80033574BA0
:1014A00000F5C65C42F8205053F82CE02EF4803E44
:1014B00043F82CE053F82C30BFF35F8F4FF0010C52
:1014C00043099B0000F01F0003F1604303F56143F3
:1014D0000CFA00F0C3F88001186091F905000B794F
:1014E00000284FEA0313DBB2C0F2528100F1604CD6
:1014F0000CF5614C8CF80033404B00F5C65C42F8AB
:10150000205053F82CE02EF4803E43F82CE053F8A2
:101510002C30BFF35F8F4FF0010C43099B0000F0AC
:101520001F0003F1604303F561430CFA00F0C3F8B8
:101530008001186091F907008B7900284FEA0313A6
:10154000DBB2C0F21D8100F1604C0CF5614C8CF8EF
:1015500000332A4B00F5C65C42F8205053F82CE0CB
:101560002EF4803E43F82CE053F82C30BFF35F8F0D
:101570004FF0010C43099B0000F01F0003F1604392
:1015800003F561430CFA00F0C3F88001186091F98B
:1015900009000B7A00284FEA0313DBB2C0F2E8809F
:1015A00000F1604C0CF5614C8CF80033134B00F5E6
:1015B000C65C42F8205053F82CE02EF4803E43F8ED
:1015C0002CE053F82C30BFF35F8F4FF0010C430930
:1015D0009B0000F01F0003F1604303F561430CFA28
:1015E00000F013E00030344069620D2268620D2281
:1015F0000030204000603440D0620D220060004086
:101600001001097D0B00D00007E5F757C3F88001F2
:10161000186091F90B30897A002B4FEA0111C9B299
:10162000C0F2A08003F1604000F5614080F8001333
:1016300042F823505E4A03F5C65152F8210020F4C7
:10164000803042F8210052F82120BFF35F8F012142
:1016500003F01F025B099B0003F1604303F5614344
:1016600001FA02F2C3F880211A60524B524A2B60F1
:10167000D2F80031A86843F48073C2F800313170A9
:10168000417B00290CBF01230323C2F8043102E08F
:101690003378022B05D0D2F82033C3F380638B421A
:1016A000F6D1022094F8323094F833201B049205CE
:1016B00002F4400203F47C13134394F83120307099
:1016C0003D4E43EAC233C6F8203443F6FC71E26B68
:1016D0003A4B94F838004FF0060C03EA024242EA13
:1016E000C032606BC0F30B000243C6F82824D4E973
:1016F0001002C0F30C0E324800EA024242EA0E0227
:10170000C6F82C24226D03EA024394F84C2043EAE5
:10171000C233A26CC2F30B021343C6F83034A36D7C
:1017200000EA0340636DC3F30C031843C6F83404A6
:10173000E36D284601EA83012B69C6F80414694663
:101740008DF800C00393FFF799FC384605B0F0BD53
:101750001E27384605B0F0BD1A4A00F00F0C62444F
:1017600013766EE6174803F00F0C604401765FE7CE
:10177000DFF850C000F00F0EF4448CF8183015E775
:10178000DFF840C000F00F0EF4448CF81830E0E6AB
:10179000DFF830C000F00F0EF4448CF81830ABE6E0
:1017A000DFF820C000F00F0EF4448CF8183076E615
:1017B000006000404449504D006034400000FF7F0D
:1017C0000000FF1FFCEC00E0F8B55E4A0746D2F8C7
:1017D0001034590714D5D2F800345B4943F00203A2
:1017E000C2F8003401E00B781BB1D2F810349B072B
:1017F000F9D50022534B0A70D3F81024C3F81424EF
:101800000320504AD7F808C0D2F804314F4C23F0D7
:101810000103C2F804319CF80D10207001E0237818
:101820002BB1D2F82033C3F3C0638B42F7D101262A
:101830000025DCF86830464993F9012025705009ED
:1018400002F01F02203006FA02F241F82020BFF316
:101850004F8FBFF36F8F3F4A93F9010042F820503A
:1018600093F90300440900F01F0006FA00F0203449
:1018700041F82400BFF34F8FBFF36F8F93F903003C
:1018800042F8205093F90500440900F01F0006FAC1
:1018900000F0203441F82400BFF34F8FBFF36F8F67
:1018A00093F9050042F8205093F90700440900F02D
:1018B0001F0006FA00F0203441F82400BFF34F8FD8
:1018C000BFF36F8F93F9070042F8205093F9090096
:1018D000440900F01F0006FA00F0203441F824000B
:1018E000BFF34F8FBFF36F8F93F9090042F8205079
:1018F00093F90B00440900F01F0006FA00F02034B1
:1019000041F82400BFF34F8FBFF36F8FDCF8001056
:1019100093F90B30086842F82350FFF7BFFA3D6097
:10192000EFF3108486F310880B4B9A6842F48062C0
:101930009A609B689620314602F008F884F310887C
:101940002846F8BD0060344068620D2269620D22AD
:1019500000E100E0D0620D220030204010B5114BB4
:1019600084B0D3F8D045C3F8D445EFF30383103BDC
:101970000D4A5BB203F5C65152F8210020F48030C5
:1019800042F8210052F8212000220848694650F808
:101990002300019403698DF800200393FFF76EFB89
:1019A00004B010BD0060344000600040D0620D22E1
:1019B00010B5114B84B0D3F81046C3F81446EFF3BA
:1019C0000383103B0D4A5BB203F5C65152F8210068
:1019D00020F4803042F8210052F8212001220848EA
:1019E000694650F82300019403698DF800200393A1
:1019F000FFF744FB04B010BD0060344000600040BD
:101A0000D0620D2230B5344B85B0D3F81044C3F802
:101A10001444EFF30383103B304A5BB203F5C65125
:101A200052F8210020F4803042F8210052F82120A1
:101A30002B4A52F8235014F0080347D00122294BB7
:101A40001A7002232A6928466946019403928DF888
:101A50000030FFF713FB14F4400F35D01E4AD2F8C4
:101A6000003143F48073C2F80031D2F8103143F0F2
:101A70000103C2F81031D2F8143103F01F031F2BF9
:101A8000F9D1AB68D2F81001DB7A40F480305B0208
:101A90001149C2F81001A3F58072D1F8143103F492
:101AA00003439342F9D1D1F810310B4A23F4803328
:101AB000C1F81031D1F8103123F00103C1F8103111
:101AC000D2F81431DB06FBD105B030BDA20744BF0C
:101AD000044A1370B5E700BF006034400060004066
:101AE000D0620D2268620D2270B5144C84B0D4F817
:101AF0000052C4F80452EFF30383103B104A5BB268
:101B000003F5C65152F8210020F4803042F821003C
:101B100052F8212003220B490B4E51F8230069464D
:101B200003690195CDE902638DF80020FFF7A6FA5D
:101B30000123C4F83C3204B070BD00BF00603440E3
:101B400000600040D0620D224062344010B5114B5D
:101B500084B0D3F80043C3F80443EFF30383103B8E
:101B60000D4A5BB203F5C65152F8210020F48030D3
:101B700042F8210052F8212004220848694650F812
:101B80002300019403698DF800200393FFF776FA90
:101B900004B010BD0060344000600040D0620D22EF
:101BA00010B5194B84B0D3F82043C3F82443EFF3A6
:101BB0000383103B154A5BB203F5C65152F821006E
:101BC00020F4803042F8210052F82120104A1148B8
:101BD000117850F82300012911D01378032B03D179
:101BE000230144BF00231370052302696946019451
:101BF00003928DF80030FFF741FA04B010BD610187
:101C0000EBD502231370EFE7006034400060004022
:101C100069620D22D0620D220022034610461A602E
:101C2000704700BF0B0A10B41B01064C53FA81F138
:101C300054F821300020C3F340035DF8044B1370C7
:101C4000704700BF00084040090A490101F1804186
:101C500001F580014B68002013807047090A490193
:101C600023EA020C01F180411A4001F5800142EAA9
:101C70000C4200208A607047002001238242CAB2D1
:101C800003FA02F39AB24FEA034308BF1A460B0A5B
:101C90005B0103F1804303F580039A60704700BF46
:101CA000090A490101F1804101F5800110B40C6875
:101CB00002EA030C4CEA040C62EA030202EA0C0298
:101CC00000205DF8044B0A60704700BF090A490113
:101CD00001F1804101F580014B680020C3F30F43FF
:101CE00013807047012310B44FEA112C4FEA4C1CAB
:101CF0000CF1804C0CF5800CDCF80440C9B28B4030
:101D000099B203EA14435B1AB3FA83F35B09002028
:101D10005DF8044B13707047090A490123EA020C6D
:101D200001F180411A4001F5800142EA0C42002095
:101D3000CA60704701200B0A5B0103F1804303F581
:101D40008003C9B210B400FA01F1DC68012A4FEA3D
:101D500001400DBF84438C4304430C430020DC60EE
:101D60005DF8044B704700BF2DE9F84F0388DBB1E5
:101D70004FF0000A80464FF00109DFF8D4B000248C
:101D8000314D4FEACA07D8F8043035F8022BD9197B
:101D9000898891420AD00134032CF4D1B8F800307C
:101DA0000AF1010A5345EAD8BDE8F88FDB5909FA70
:101DB00004F603F0B853B3F1807F244BF6B293F8E6
:101DC0004C2C12D0324230D104F120021BF81230D8
:101DD000DB09E0D01BF81230012123F08003C8207A
:101DE0000BF8123001F0B2FDD5E7324210D004F109
:101DF00020021BF81230DB09CDD11BF81230012173
:101E000043F08003C8200BF8123001F09FFDC2E7B9
:101E1000012001F043FE0D4B012093F84C2C32437E
:101E200083F84C2C01F00AFEE1E7012001F036FEB8
:101E3000064B012093F84C2C22EA060283F84C2C26
:101E400001F0FCFDC0E700BF4054000200E001408B
:101E500000202040F8B50446FFF786FFEFF310821C
:101E6000012383F31088254E33681BB94020244991
:101E70000B75087533680133336082F3108821884D
:101E800049B3C9000839C90860681E4D013107E02F
:101E90001B011344013945F8234000F108001AD012
:101EA00004688288E7034FEA1223D2B2F0D502EB2E
:101EB000031C55F82CE01B0124F480372EF4803EDF
:101EC0001344013945F82CE000F1080045F82C7066
:101ED00045F82340E4D1EFF31082012383F3108807
:101EE000336813B13368013B336033681BB980201A
:101EF00003490B75087582F31088F8BDC8620D227E
:101F0000000D40400008404008B5034B0360084600
:101F1000FFF7A0FF002008BD54524F5008B50846F7
:101F2000FFF798FF002008BD70B5012686B001AB11
:101F300003A80C4615460493ADF80C60ADF80810E4
:101F40000192FFF711FFEFF3108186F310881D4B0C
:101F50001A681AB91C480275402202751A680132C3
:101F60001A6081F31088E9034FEA1422E4B219D40D
:101F7000110116480A1940F82250EFF3108201218E
:101F800081F31088196811B11968013919601B684B
:101F90001BB980200C490B75087582F3108800204E
:101FA00006B070BD0948110104EB021250F822601E
:101FB00026F4803640F8226025F4803640F822600E
:101FC000D7E700BFC8620D22000D40400008404026
:101FD00030B5836B83B004460A466D46A3B193E8DF
:101FE000030085E80300E16B1A711846626B196003
:101FF0009047A36B1BB195E8030083E8030000231F
:1020000084F82B3003B030BD2B46ECE7F0B54FF031
:102010005F0CDF244FF01F0E026803697C4F83F8CA
:1020200000E083F800C01C70546AD2F804C0227922
:10203000002642F0E0021A74E278B32542F0E00292
:102040005A74A278120102F0700242F008029A70EB
:1020500022786478012A14BF0422052242EA44024D
:10206000D2B2BC45DA7014BF7722F7225A719E7142
:10207000DD714B7B91F911201B01B242DBB2C0F242
:10208000AA8002F1604404F5614484F80033614C95
:10209000614B02F5C65544F8220053F8256026F43A
:1020A000803643F8256053F82530BFF35F8F4FF03B
:1020B000010C53099B0002F01F0203F1604303F57A
:1020C00061430CFA02F2C3F880211A6091F90F20E3
:1020D0004B7B002AC0F294801B0102F16045DBB209
:1020E00005F5614585F800334B4B02F5C65544F8BC
:1020F000220053F8256026F4803643F8256053F813
:102100002530BFF35F8F4FF0010C53099B0002F0A5
:102110001F0203F1604303F561430CFA02F2C3F8B6
:1021200080211A6091F910204B7B002A61DB1B0192
:1021300002F16045DBB205F5614585F80033364BA9
:1021400002F5C65C44F8220053F82C5025F4803583
:1021500043F82C5053F82C30BFF35F8F4FF0010C35
:1021600053099B0002F01F0203F1604303F5614332
:102170000CFA02F2C3F880211A6091F90E204B7B11
:10218000002A2EDB1B0102F16041DBB201F5614147
:1021900081F80033204B02F5C65144F8220053F871
:1021A000214024F4803443F8214053F82130BFF318
:1021B0005F8F012153099B0002F01F0203F160436E
:1021C00003F5614301FA02F2C3F880211A609F22ED
:1021D00003691A70F0BD114C02F00F052C442376F0
:1021E00055E70E4902F00F051B01DBB229440B76BF
:1021F000D0E70B4D1B0102F00F06DBB2AB559EE79B
:10220000074D1B0102F00F06DBB2AB556CE700BFB8
:1022100040420F00D0620D2200600040FCEC00E064
:1022200014ED00E0F8B50E4600240978B2681B4BA7
:10223000C0E900620B441B020361337B0546037255
:10224000D6E907234263C0E90E43EFF3108701216B
:1022500081F31088124A33785068C3F1090301FAF8
:1022600003F320EA030353605368962001F06EFBEA
:1022700087F3108828463146FFF7C8FE094B85F8DA
:102280002940204685F82A40C5E9074485F82B40B7
:102290006C61AC6185F82C40EB60F8BDE025400036
:1022A000003020404349495270B500250446036977
:1022B0000168DD71FFF7AAFEB320012194F82630F2
:1022C00084F82C5084F82830A36984F82A50C4E993
:1022D000075323692A4AD8712068DD71E56090F9B7
:1022E0001130580903F01F0301FA03F3203042F8BC
:1022F0002030BFF34F8FBFF36F8F236893F90E30F9
:10230000580903F01F0301FA03F3203042F820308C
:10231000BFF34F8FBFF36F8F236893F910305809C5
:1023200003F01F0301FA03F3203042F82030BFF31B
:102330004F8FBFF36F8F236893F90F30580903F065
:102340001F0301FA03F3203042F82030BFF34F8F10
:10235000BFF36F8FEFF3108681F310882368094A6B
:102360001B785068C3F1090301FA03F30343536078
:102370005368962001F0EAFA86F31088284670BD6B
:1023800000E100E00030204010B582B0EFF303839D
:10239000103B5A4A5BB203F5C65352F8231021F49E
:1023A000803142F8231052F82330EFF30383544A6C
:1023B000103B5BB252F8234094F82D304BBBA3691D
:1023C000022B20D9E369012B0CD123691A7942F041
:1023D00010021A711A7942F008021A711A7922F061
:1023E00010021A7123685B6ADB79002B3ED101224F
:1023F0002369DB7CDBB28DF807309DF8073084F869
:102400002D2002B010BD2269137943F040031371EF
:10241000D8E7E369002BF4D02268526AD279FAB97E
:10242000032B17D0022B26D0012B32D02269D17C6E
:10243000236A6269D154D4E907320132013BC4E90D
:102440000732002BDDD121690A7963F386120A7104
:1024500002B010BD2269137943F040031371E6E71F
:1024600005212046FFF7B4FDE369D9E705212046A1
:10247000FFF7AEFDBBE72269137943F01003137138
:10248000137943F008031371137923F010031371C8
:10249000CDE794F82A204AB322681A4892F90F200F
:1024A000510902F01F0203FA02F2203140F8212004
:1024B000BFF34F8FBFF36F8F04202269D17941F0B2
:1024C0008001D171117941F010011171117921F060
:1024D00008011171117921F01001117150705179B9
:1024E00021F00101517184F82C30A0E70821226904
:1024F000537A03F0F7035372517098E7006000407D
:10250000D0620D2200E100E038B5EFF30383103B09
:102510003D4A5BB203F5C65352F8231021F48031D3
:1025200042F8231052F82330EFF30383374A103B6D
:102530005BB252F8234094F82730002B3BD194F83B
:102540002930002B36D123685B6ADB792BB194F8F4
:102550002B3013B9236A002B50D1E3692169002B7A
:102560003AD1CB79C02223F08003CB7101E0013A4C
:1025700002D0CB79DB09FAD12368234A93F91030D2
:1025800003F5C65052F8204024F4803442F820402D
:1025900052F82020002B09DB01205A091C4C03F0C3
:1025A0001F03603200FA03F344F82230CB7943F082
:1025B0004003CB7138BD94F8261094F828200329E5
:1025C00015D094F8240021690132013B887484F805
:1025D000282084F8273038BD226A6569501CAA5C1F
:1025E000013B8A74C4E90730002BBAD038BD022AF7
:1025F000E7D194F830100029E3D138BD05212046F9
:10260000FFF7E6FCA9E700BF00600040D0620D22A2
:1026100000E100E038B5EFF30383324A103B5BB2D0
:1026200052F8234023685B6ADB79002B48D194F889
:1026300029301BB194F82730012B4ED0E369DBB170
:102640002169CA79C02322F04002CA7101E0013B2E
:1026500002D0CA795206FAD4EFF30383103B224A20
:102660005BB203F5C65352F8231021F4803142F8CF
:10267000231052F8233038BD94F82A202AB30120C1
:1026800022681A4D92F90F20510902F01F022031E1
:1026900000FA02F245F82120BFF34F8FBFF36F8F8E
:1026A0004FF0040C2169CA7942F08002CA7181F8A6
:1026B00001C04A7963F300024A7184F82C00C0E734
:1026C00005212046FFF784FCB1E7082221694B7AF7
:1026D00003F0F7034B724A70B3E794F83030002BE5
:1026E000ACD1ADE7D0620D220060004000E100E017
:1026F00038B5EFF30383494A103B5BB252F823002D
:1027000003695A7A597AD50601F0E00159725FFAE5
:1027100082FC02F003012BD55A78540647D40024DA
:102720000125016880F82B50DC71FFF76FFCB322A4
:1027300090F82630816980F82830036980F82C40B1
:102740000162C46180F82A402946DA71FFF740FC33
:10275000EFF30383103B324A5BB203F5C65352F8E2
:10276000231021F4803142F8231052F8233038BD71
:102770000029D4D11CF0080F0DD090F82B20002A8E
:102780003BD1B32290F82910DA71C1F10301C9B22B
:10279000FFF71EFCDCE790F82C100CF0040219B3D4
:1027A000002AD5D090F82B20002A34D1E9E700295F
:1027B000B5D15A78C2F380115206DBD508220468DD
:1027C00080F82B10616A88795A700A78497942EA50
:1027D000C01242EA011242F00202D2B2DA705A7911
:1027E00042F001025A71B3E7002AB1D003685B6A74
:1027F000DB79002BACD00421CAE70022B32190F88A
:102800002650846980F82C2080F828500462C26128
:1028100080F82A20D9710121BAE700BFD0620D22C9
:1028200000600040F0B50346002591F902C01B4C42
:102830004FEA8C0202F1804280F804C002F5404267
:10284000D1E90270D2F80063C2F80053C3E9027004
:1028500091F800E0BCF1000F83F805E004F80E5099
:102860000D79C87840EA05104D7940EAC510C0B22C
:1028700004F80E00C2F800630BDB4A780848120126
:102880000CF16041D2B201F5614181F8002340F8BA
:102890002C30044A00201A60F0BD00BF00600040E8
:1028A000D0620D225543490090F904200E4B02F5E9
:1028B000C65153F8210020F4803043F8210053F82A
:1028C0002130BFF35F8F012153099B0002F01F02EB
:1028D00003F1604303F5614301FA02F2C3F880217A
:1028E0001A600020704700BF0060004090F904208B
:1028F0000346002A19DB012010B451090C4C02F0E8
:102900001F02203100FA02F244F82120BFF34F8F5A
:10291000BFF36F8F0020074A93F904105DF8044B52
:1029200042F82100002018607047002018607047AE
:1029300000E100E0D0620D2210B582B0EFF3038415
:10294000194B103C64B253F82410184A4879135CB0
:1029500003F00303032B12D004F5C65452F82430BD
:1029600023F4803342F8243052F824308B6823B1AA
:10297000CA68CDE900206846984702B010BD8B6850
:1029800023B1CA68CDE9002068469847074B04F593
:10299000C65453F8242022F4803243F8242053F8FC
:1029A000243002B010BD00BFD0620D220060004094
:1029B00070B5836984B004468C46164601AD9BB160
:1029C00093E8070085E8070083F804C0E1696269BD
:1029D00018469E6019609047A3691BB195E80700EF
:1029E00083E8070004B070BD2B46EDE7806830B582
:1029F000426E1E4D01328A60C06A2C6A95F824200E
:102A000004F00F0502F00F0C194B45EA0C0E1EF0F6
:102A1000080F1B68C0F3C35013D0D2B212F0080FD6
:102A200018D1012214F0080F02FA0CF21BD0032572
:102A300004F0070405FA04F402FB03F3B3FBF4F318
:102A400002E003FA0CF3EB400122C3404B6000208C
:102A50000A7030BD4FF0030C02F0070214F0080FAB
:102A60000CFA02F2E3D10124AC40E5E700E00140BA
:102A700058640D22002800DA704710B400F1604C51
:102A8000124C0901124BC9B20CF5614C8CF80013C1
:102A900000F5C65144F8202053F8212022F480325A
:102AA00043F8212053F82130BFF35F8F01224309FF
:102AB0009B0000F01F0003F1604303F56143824077
:102AC000C3F880211A605DF8044B7047D0620D2274
:102AD000006000402DE9F8430D4601212B7C484A57
:102AE00000271A44120201FA03F3C0E90223DBB201
:102AF000B3FA83F35B090374D5E90523EE69044651
:102B000045604261C3618761EFF3108981F31088EA
:102B10004FF000483B4B287C1A6928FA00F022EA63
:102B200000021A611B69962000F010FF89F31088DB
:102B30004FF42542A3681A60DF62DF639F642A7A3C
:102B40002978D205032942F4803108BF0A46696812
:102B5000DA62B269C3F81080C3F81480C3F8188031
:102B60005F629F62DA61F26901391A62626899668E
:102B7000D269596692F83000B16BC70702D5976ADF
:102B8000013FDF64800702D5D26A013A1A6500224C
:102B90009A63C3F8882031B996F8211096F820205E
:102BA000490741EA423196F830204FF0030C002AE1
:102BB00014BF4FF4A00E4FF4AA0E0127E068C3F82B
:102BC00040E05963C3F830C01F63D8602246697C77
:102BD00095F91200FFF74EFF224696F8221096F95B
:102BE0002400FFF747FF96F92500224696F82310A8
:102BF000FFF740FF044B00202360BDE8F88300BFCF
:102C000020324000003020405450470030B441682A
:102C1000034691F91220C969002A11DB0124224DD3
:102C2000500902F01F0C203004FA0CF445F8204043
:102C3000BFF34F8FBFF36F8F00241C4840F8224032
:102C400091F92420002A11DB0124174D500902F0CC
:102C50001F0C203004FA0CF445F82040BFF34F8FCE
:102C6000BFF36F8F0024114840F8224091F92520CE
:102C7000002A11DB01200C4C510902F01F0C2031FD
:102C800000FA0CF044F82100BFF34F8FBFF36F8FB1
:102C90000020064941F822000020D3E9022130BC7F
:102CA000186091605063704700E100E0D0620D222F
:102CB000F0B5EFF30382103A1E4C53B203F5C65E33
:102CC00054F82E10980021F4803100F1804C44F823
:102CD0002E100CF5404CDCF80013174951F8230076
:102CE00041680978012908D043692BB1BDE8F0405B
:102CF00000221146FFF75CBEF0BD0025D0E9026757
:102D0000B760B564F564356554F82E6002F0FF02D3
:102D100065F3104644F82E60DCF80043BFF35F8F84
:102D2000064C5B0902F01F029140603344F8231007
:102D3000DAE700BF00600040D0620D2200E100E051
:102D4000C36810B5D3F884300446DB689A68186805
:102D5000936898470221084B1A6842F480721A60FF
:102D60001A6842F001021A60D3F8402442F00102CE
:102D7000C3F84024217010BD0030344070B541F2DA
:102D800050150D488B8800EB02267459C4F300449B
:102D900084F0010404EB420203EB0223CA8800EB37
:102DA00083000968920001F015F87359002064F35C
:102DB0001043735170BD00BF00203440F8B5C368A4
:102DC000494DD3F884202968D26804469668106873
:102DD000CA0766D4D3F88430DB689A6818685368E9
:102DE0009847414B06469B69DB0578D4E36893F925
:102DF0007720002A0EDB01213C48530902F01F0214
:102E0000203301FA02F240F82320BFF34F8FBFF3C3
:102E10006F8FE36893F97820002A0EDB0121334895
:102E2000530902F01F02203301FA02F240F8232076
:102E3000BFF34F8FBFF36F8FE36893F97930002BA7
:102E40000DDB012129485A0903F01F03203201FA42
:102E500003F340F82230BFF34F8FBFF36F8F00258D
:102E6000214BC3F84054C3F844541A6865F3000278
:102E70001A601A6865F310421A60EFF31087012197
:102E800081F31088A3F5A0139A6842F010029A60AB
:102E90009B68962000F05AFD87F310882570304615
:102EA000F8BDF3689847C0B9D5F80031DF0714D4EE
:102EB000D5F80032DE0710D4D5F8C033D8070CD4CB
:102EC0002B68D905C3F3002207D401212B6862F3D4
:102ED00000032B60E36821707CE7E3687AE740F247
:102EE000EE363046F8BD00BF0030344000E100E06F
:102EF0002DE9F04FAC4B047B0768856833F814E08C
:102F000083B0002F00F0ED8041F21C1AA74EDFF8CD
:102F1000B49216F80480A64E14024FEA08782644AC
:102F2000B1F9003046F80A80B9F804809C4698450B
:102F300080F29A80B9F9003090F80EA0B1F90260E1
:102F40000093BAF1000F40F0DB800EFB05FEB9F8EC
:102F50000680D446B0455346CDF804A04FEADE0EB5
:102F6000C0F2B180002EC588C0F2D480A8EB06085C
:102F7000A8451FFA88F8B8BF454641F20C1BDFF898
:102F80003082A04448F80B70477B002F5EEA0EBEEB
:102F9000BAF1000F00F09C80078A4FF0000E41F25A
:102FA000101007FB05F548F800E0009841F2181BE7
:102FB000844441F2281AB9F9020041F2241841F27E
:102FC000301941F22C1E06449B097A48013F013B0F
:102FD0009BB200EA07471F43019B00EA0C4C00EA42
:102FE00006404CEA0306724BC5F30A052344284306
:102FF00043F80B7043F80A6043F8096043F808008F
:1030000043F80E00087A002860D0012841F23415F8
:1030100014BF4FF47F06002641F2381041F2030737
:103020004B7A63494FEA0343214418BF43F080734E
:103030004B51614B0E501B686049023341F82230FE
:10304000012141F250100025594B11321C4403EB71
:1030500002235B4A04F58956376059602550117088
:10306000517003B0BDE8F08F002B86885ADBA8EBC7
:103070000308B0451FFA88F8B8BF4646B9F90030D2
:1030800000930EFB06F3C6F30A060196DB0890F8E0
:103090000EA0B1F90260BAF1000F05D04FF0010A9D
:1030A000B0F8068008FB03F30EFB05FE13F03F0F9C
:1030B000B9F806801CBF23F03F034033B0454FEA08
:1030C000DE0EBFF64FAF0026354656E70327B7E7BB
:1030D0002F4641F210154FEA0E4048F805003D46D4
:1030E00063E70121324B02F1110003EB022202F5EA
:1030F000895203EB002311605F6003B0BDE8F08FDD
:103100000023B0F806809C4601934FF0010A08FBAB
:1031100003F3C9E73544002DD5DD06FB1E77ADB2BC
:1031200000262AE703EB0608B8F1000F7FF702AF8D
:10313000BEF1070F20D84FF0010AD446C3F1000BAF
:10314000B9F900306345009320DABBFBFAFA1AFBA9
:103150000CFA4FF0000CA6EB0A061FFA86F80BFBE0
:103160000EF307EBE30323F03F070EFB08F3C8F36E
:103170000A060196DB088AE74FF0400C4FEADE0AA8
:10318000BCFBFAFCE2460FFA8CFCD7E7BBFBFAFC6F
:103190000AFB1CBC1FFA8CFCE044CCF1000C1FFAAB
:1031A00088F80FFA8CFCDAE7885400029854000281
:1031B000002034400000FF076C620D2270620D2277
:1031C0004800002278620D222DE9F84F00230546C1
:1031D0000C460370EFF31086012181F31088C74B72
:1031E0009A6822F010029A609B68962000F0AEFB6D
:1031F00086F31088C2490B6843F480330B60D4F81F
:10320000846094F83C003279A0F10300B0FA80F0B9
:10321000B2FA82F27379400903F03F0343EA0033C4
:10322000520943EA022343F04003C1F8503494F8B2
:1032300040300BB14FF4BC73C1F8E4330023B04805
:10324000C0F8043496F9001096F901204F1C96F945
:10325000023040F06581511C40F07E81A78EB4F8A9
:103260002AE05A1CB4F83680B4F82CC0CEF30A0B0E
:10327000C7F30A0A40F086814FF00119608E218D54
:10328000A04A94F84530C1F30A0102EA004008431D
:1032900094F846101B0203EB014394F844100B44CE
:1032A0000CF1010102EA014141EA0B0108F1010BB5
:1032B00002EA0B4242EA0A02DFF844A2CAF804001A
:1032C000CAF80890DFF85492CAF810102046CAF8DD
:1032D0000C2004F15C01CAF814300022A9F800C0E7
:1032E000A9F804E0A9F80280A9F80670FFF700FE2B
:1032F000012204F1680104F11400FFF7F9FD94F8CC
:103300003C20814B94F83D009B5C01284FEA03333D
:1033100043F0805008BF034694F83E0043F0807CA1
:10332000012808BF6346794994F85800895C032A4C
:1033300043F4007208BF1346090428B1B279022A87
:1033400000F03D8141F480114FF4007C4FF00220E9
:1033500047447A1C6A4FC9F80850C7F8C4336C4B0D
:10336000C7F8D413C7F8C8C3C7F8CC03C7F8D0331D
:10337000E36F6B60D4F88030C5E90234D7F850327F
:1033800062F30A03C7F85032F368D3E901121868F0
:10339000126890470446B8B907220621EB68C7F8BF
:1033A0004014C7F8442493F97720002A76DA93F979
:1033B0007820002A44DA93F97920002A17DA0123C9
:1033C0002B702046BDE8F88FEFF31085012181F3C3
:1033D00010884A4B9A6842F010029A609B689620C7
:1033E00000F0B4FA85F310882046BDE8F88F93F812
:1033F000763002F160411B014648DBB201F56141C4
:1034000081F80033444B02F5C65140F8225053F87E
:10341000210020F4803043F8210053F82130BFF31D
:103420005F8F012153099B0002F01F0203F16043EB
:1034300003F5614301FA02F2C3F880211A60BEE786
:1034400093F8753002F160411B013248DBB201F59F
:10345000614181F80033304B02F5C65140F82250EB
:1034600053F8210020F4803043F8210053F8213034
:10347000BFF35F8F012153099B0002F01F0203F18C
:10348000604303F5614301FA02F2C3F880211A6038
:10349000EB6893F97920002A91DBA8E793F8743060
:1034A00002F160411B011B48DBB201F5614181F86B
:1034B0000033194B02F5C65140F8225053F8210051
:1034C00064F3104043F8210053F82130BFF35F8FBD
:1034D000012153099B0002F01F0203F1604303F531
:1034E000614301FA02F2C3F880211A60EB6893F994
:1034F0007820002AFFF65FAFA2E700BF003020402F
:10350000003034400000FF07805400027C54000269
:1035100080808000D0620D220060004078620D2221
:1035200094F830C0E78DBCF1000F05D1D0F81CC471
:103530004CF0100CC0F81CC4C7F30A00274FDFF88A
:10354000A0C057F82170396841F002013960511C60
:10355000CCF818043FF482AE94F83A00218F30B9C9
:103560001F4FD7F80C0440F01000C7F80C041B489C
:10357000C1F30A0150F82220194817681760C0F8F3
:1035800008146BE694F83F201AB90121144AC2F8D6
:103590002814124A52F82310124B0A6842F007020C
:1035A0000A600F4903EA0C4203EA084342EA0B02AD
:1035B00043EA0A03C1F82024C1F810345CE6727AA9
:1035C000F079120142EA0032B07A0243307A42EADC
:1035D000002242F400121143B6E600BFA0540002DC
:1035E000003034400000FF07194B30B51A68194904
:1035F00001321A601B68886883B023B90024002553
:10360000154BC3E900450122144B41681A705A70EA
:1036100031B1032382688DF80030684601928847F3
:103620000F4AD2F8483443F00103C2F84834EFF3AC
:103630000383103B0B4A5BB203F5C65352F82310C9
:1036400021F4803142F8231052F8233003B030BD0A
:103650006C620D2278620D2270620D2248000022F9
:1036600000303440006000401E4A92F8263092F844
:103670002420DBB202F00F02A2F1080103292BD8AB
:10368000DFE801F020160C021749184A51F82330E0
:10369000A2FB03231B09164A136070471249134A01
:1036A00051F82330A2FB0323114ADB081360704753
:1036B0000D490E4A51F82330A2FB03230C4A9B0804
:1036C000136070470849094A51F82330A2FB0323CD
:1036D000074A5B0813607047034951F82330D34011
:1036E000D9E700BF00E0014054000022ABAAAAAA1B
:1036F00058640D22704700BFF8B54AF20350012309
:1037000059495A4AA1F8FA03938093889BB2002B37
:10371000FBD101244FF400409FED4F6B9FED507B98
:10372000534B5449C3E907115961148083ED007F5D
:103730001861FFF799FF092206214B4B83F8501AB5
:1037400083F8A22093F8002C1AB993F8013C98074B
:103750007DD0454C94F8003C002B6DD00022424BAC
:1037600083F8012C83F8002C00233F4A82F8323082
:1037700092F83C301907FBD545F6017040F2111163
:103780000023394C1085A2F84C1082F82A3094F8A6
:103790003C309B06FBD5042201250526334B364FD2
:1037A0001A77276284F8245084F82660FFF75CFFBC
:1037B0002946962000F0CAF8002384F824302762B6
:1037C000FFF752FF2946962000F0C0F884F82660E3
:1037D000FFF74AFF4AF20152284B1A80BFF35F8F6E
:1037E0001D72BFF35F8F4FF42541198084F830506C
:1037F00084F8525084F8535094F85F301A4A43F0DA
:10380000400384F85F3092F85F30DB09FBD0C520BD
:1038100082F85E3082F85F0092F85F30124903F060
:10382000BF0382F85F3091F85F30DB09FBD14FF4C2
:103830002543A1F8FA33F8BD0121C82084F8001C03
:1038400000F084F894F8003C012BFBD186E74FF49C
:103850007A70FFF74FFF87E7006CDC0200127A00F6
:1038600000800000002D310100E0014000C1014056
:103870005400002200389C1C3223123100200040EA
:1038800038B50025284C0121C82084F8285000F0C4
:103890005DF884F8245094F82430002BFBD194F880
:1038A0002430214943F0020384F8243091F8243075
:1038B000C3F340009B07F9D41B4A81F8220092F819
:1038C000223003F0FF00002BF9D192F84030164966
:1038D00060F3C71382F8403091F84030DB09FBD128
:1038E00091F84200104A63F3C71081F8420092F841
:1038F0004230DB09FBD192F844000B4963F3C71057
:1039000082F8440091F84430C3F3C014DB09F9D1C4
:10391000012000F0C3F8054B012083F84C4CBDE8B2
:10392000384000F08BB800BF0020204000E001408C
:1039300003464FF0A16200201A607047FFFFFFFFAF
:10394000A0F101000028FBD1704700BF1C4B1D4AAD
:103950001B6800FB01F193420FD302F1854202F58F
:10396000071202F68342A2FB03239B0CA3FB013147
:103970004FF0FF30E1B1FFF7E3BF4FF47A7210B4BC
:10398000114C4FF0FF30B4FBF3F3A1FB02C434B988
:10399000BCFBF3F080B15DF8044BFFF7D1BFB1FB86
:1039A000F3F1A1FB0212002AF5D1084620B1F2E79B
:1039B0001846002BDFD170475DF8044B704700BFFD
:1039C00058640D2200127A0000CA9A3B70B5002498
:1039D0000D4B0E4EB3F80021B3F82051ADB2154097
:1039E00025FA04F3DB0704D556F82430E0B203B11E
:1039F00098470134102CF3D1034AA2F81051B2F8C1
:103A000020311D42FBD170BD00C0004088620D22F4
:103A10000022602310B40748074C30F8021F02F55B
:103A2000C65C013209B144F82C10013BF5D15DF8B8
:103A3000044B70475653000200600040EFF31081C2
:103A4000012383F31088124B33F8102092B22AB16D
:103A500033F81020013A92B223F8102033F81030D6
:103A60009BB293B90B4A10B4B2F8FA330A4C9BB22A
:103A700034F8100043F4254323EA0003A2F8FA3394
:103A800081F310885DF8044B704781F3108870470C
:103A900050640D2200E00140B054000230B4EFF356
:103AA0001081012383F310880E4A32F810309BB244
:103AB0006BB90D4C0D4DB4F8FA3335F810C09BB20C
:103AC00043EA0C0343F425439BB2A4F8FA3332F8DB
:103AD000103001339BB222F8103081F3108830BCD3
:103AE000704700BF50640D2200E00140B054000256
:103AF000F8B506462E4C94F8503C03F0FF05002B19
:103B0000F9D18723A4F8243C84F8005C002E3CD132
:103B100001220023264981F8022C81F8013C91F80A
:103B2000503C002BFBD1BEB14FF40C73204AA1F8DE
:103B3000483C92F8503CD907FBD4012347F2A83106
:103B40001C48C2F8440C82F8403CA2F8141C82F8CD
:103B5000163C82F8003CF8BD012347F2A830154C12
:103B6000134AC1F8444C81F8403CA1F8140C81F888
:103B7000163C92F8003CDB07FBD492F8503C002B3B
:103B8000F7D1012382F8103CF8BD01272846FFF742
:103B900085FF094B284683F85370FFF74FFF044A0F
:103BA00084F8207C92F8503C1807FBD4B0E700BFA3
:103BB000003000400325050000E0014000BE7047D2
:103BC00008B500F005F8FDF763F9FEE7FFFFFFFF1A
:103BD00070B5654B654D6B61BFF34F8FBFF36F8F52
:103BE000634A136843F004031360BFF34F8FBFF3BE
:103BF0006F8F4FF0E022936843F480339360BFF3FC
:103C00004F8FBFF36F8F4FF470035A4CC5F8883055
:103C10000020AC60FCF758FFFFF76EFD0120FCF7B9
:103C200053FF2368A3F5806383F30A885248534AFD
:103C30000021121A00F0C6F85148524A5249121A8D
:103C400000F0C8F85149524A5248521AD20842F07C
:103C500009C800BFAFF30080F1E80223E0E80223C7
:103C60000FF007C04C494D4A4D48521AD20842F055
:103C700009C800BFAFF30080F1E80223E0E80223A7
:103C80000FF007C0474B484A0020D21A0021D20843
:103C900042F007C0AFF30080E3E802010FF005C077
:103CA000BFF34F8FBFF36F8F0024C5F85042BFF3AF
:103CB0004F8FBFF36F8F3D4B3D4D5B1BA34206DD26
:103CC0009E1055F8043B01349847A642F9DCFFF7F3
:103CD000CBFCFFF7D5FD0320FFF7E0FE00234FF0FC
:103CE0000C0E1C464EF001E0324903F10C0221F8A3
:103CF000224001330FF007C80320FFF79FFE032087
:103D0000FFF7CCFE2C4B03205C609C60DC601C61E8
:103D10002A4CFFF793FED4F8D8335BB1D4F8D833EC
:103D20000220FCF7D1FEFFF773FEBDE870400020D3
:103D300000F046B894F81031002BF1D00120FFF7C5
:103D4000ADFE94F8103103F0C003802BF9D10023AD
:103D50001A4A84F8103192F810313F2BFBD8012019
:103D6000FFF76CFEDCE700BF01020E0000ED00E093
:103D700000E001E000000002800000225C640D22EF
:103D80000000002254000022E4540002F05400021B
:103D9000F0540002000000004055000240550002AF
:103DA0000000002000000020000000205000002241
:103DB0004C000022000D40400040204000E0014047
:103DC000704700BF02440346934200D1704703F896
:103DD000011BF9E70A44431E914200D1704710B518
:103DE00011F8014B914203F8014FF9D110BDFFFFCB
:103DF0004275696C7420776974682052656E6573CA
:103E0000617320416476616E63656420466C6578F9
:103E100069626C6520536F667477617265205061CA
:103E2000636B6167652076657273696F6E20352EEE
:103E3000382E3000352E382E3000000000000805E6
:103E4000F8B500BFF8BC08BC9E467047F8B500BF87
:103E5000F8BC08BC9E4670475465726D696E616C13
:103E600000000000284E554C4C2900005B45525282
:103E70005D20496E2046756E6374696F6E3A202529
:103E80007328292C2000000047505420436C6F7386
:103E90006520415049206661696C65640D0A000027
:103EA000474C43444320436C6F7365204150492085
:103EB0006661696C65640D0A000000004943552085
:103EC00045787465726E616C497271436C6F73658D
:103ED00020415049206661696C65640D0A0000004C
:103EE000494943204D415354455220436C6F7365FB
:103EF00020415049206661696C65640D0A0000002C
:103F00000D0A52657475726E6564204572726F7227
:103F100020436F64653A2030782578200D0A000030
:103F20002A2A204D4950492044534920436F6D6D42
:103F3000616E6420415049206661696C6564202A85
:103F40002A200D0A000000002A2A20475054204948
:103F50006E666F47657420415049206661696C65E3
:103F600064202A2A200D0A002A2A20474C43444371
:103F700020537461727420415049206661696C65F8
:103F800064202A2A200D0A002A2A20494355204568
:103F9000787465726E616C497271456E61626C65B0
:103FA00020415049206661696C6564202A2A200DF1
:103FB0000A000000312E30000D0A2A2A2A2A2A2A55
:103FC0002A2A2A2A2A2A2A2A2A2A2A2A2A2A2A2A51
:103FD0002A2A2A2A2A2A2A2A2A2A2A2A2A2A2A2A41
:103FE0002A2A2A2A2A2A2A2A2A2A2A2A2A2A2A2A31
:103FF0002A2A2A2A2A2A2A2A2A2A2A2A2A2A2A2A21
:104000002A2A2A2A2A2A2A2A2A2A0D0A2A2020206B
:1040100052656E6573617320465350204578616D1B
:10402000706C652050726F6A65637420666F7220D1
:104030004D49504920445349204D6F64756C6520AB
:104040002020202020202020202020202020202070
:1040500020202020202020202020202A0D0A2A2075
:1040600020204578616D706C652050726F6A6563C1
:10407000742056657273696F6E202573202020208E
:104080002020202020202020202020202020202030
:104090002020202020202020202020202020202020
:1040A0002020202020202020202020202A0D0A2A25
:1040B000202020466C657820536F667477617265A6
:1040C000205061636B2056657273696F6E202025E6
:1040D000642E25642E2564202020202020202020EE
:1040E00020202020202020202020202020202020D0
:1040F00020202020202020202020202020202020C0
:10410000202A0D0A2A2A2A2A2A2A2A2A2A2A2A2A56
:104110002A2A2A2A2A2A2A2A2A2A2A2A2A2A2A2AFF
:104120002A2A2A2A2A2A2A2A2A2A2A2A2A2A2A2AEF
:104130002A2A2A2A2A2A2A2A2A2A2A2A2A2A2A2ADF
:104140002A2A2A2A2A2A2A2A2A2A2A2A2A2A2A2ACF
:104150002A2A2A2A0D0A526566657220746F207217
:104160006561646D652E7478742066696C6520667F
:104170006F72206D6F72652064657461696C732065
:104180006F6E204578616D706C652050726F6A6546
:10419000637420616E640D0A465350205573657236
:1041A0002773204D616E75616C20666F72206D6F94
:1041B000726520696E666F726D6174696F6E2061E1
:1041C000626F7574204D49504920445349206472F0
:1041D000697665720D0A00000D0A546869732045FE
:1041E00078616D706C652050726F6A6563742064CD
:1041F000656D6F6E73747261746573207468652089
:1042000062617369632066756E6374696F6E616C59
:104210006974696573206F6620746865204D495024
:104220004920445349206465766963652064726956
:104230007665720D0A6F6E2052656E65736173202C
:104240005241204D435573206261736564206F6E47
:104250002052656E65736173204653502E204F6E59
:10426000207375636365737366756C20696E69741A
:1042700069616C697A6174696F6E206F66204D495F
:10428000504920445349206D6F64756C652C0D0AAC
:104290007468652045502077696C6C206469737080
:1042A0006C617920382D636F6C6F7220626172735C
:1042B000206F6E20746865204D495049204C43445E
:1042C000202865787465726E616C204C43442063CD
:1042D0006F6E6E656374656420746F205241204D6B
:1042E000435529207573696E670D0A7468652067E8
:1042F0007261706869637320616E64204D50492D4E
:10430000445349206D6F64756C657320696E204657
:1043100053502E20412075736572206D656E752097
:1043200077696C6C2062652070726F766964656471
:10433000206F766572207468652052545420566947
:10434000657765722E0D0A557365722063616E2064
:1043500063686F6F7365207468652074696D65208C
:10436000746F20656E74657220556C7472612D4C8B
:104370006F772D506F77657220537461746528557F
:104380004C50532920616E6420746F7563682074EB
:1043900068652073637265656E20746F2065786947
:1043A000740D0A74686973206D6F64652E205374F0
:1043B0006174757320696E666F726D6174696F6E7A
:1043C00020616E64206572726F72206D6573736117
:1043D0006765732077696C6C206265207072696E06
:1043E000746564206F6E204A6C696E6B2052545461
:1043F0002056696577657220647572696E670D0A6B
:1044000074686520657865637574696F6E206F6682
:10441000207468652070726F6A6563742E0D0A0AD5
:10442000200000000D0A5365742074696D652074C6
:104430006F20656E74657220556C7472612D4C6FBF
:104440007720506F7765722053746174652028550A
:104450004C5053293A0D0A312E20496E7075742044
:1044600027312720746F20656E74657220554C507B
:10447000532061667465722035732E0D0A322E202A
:10448000496E7075742027322720746F20656E7412
:10449000657220554C505320616674657220313529
:1044A000732E0D0A332E20496E7075742027332722
:1044B00020746F20656E74657220554C50532061D6
:1044C00066746572203330732E0D0A342E20496EC7
:1044D0007075742027342720746F20616C776179A0
:1044E0007320646973706C61792844656661756CCA
:1044F00074292E0D0A0D0A4E6F74653A20416674B8
:10450000657220656E746572696E6720556C747291
:1045100061204C6F7720506F7765722053746174FF
:10452000652028554C5053292C20706C65617365AB
:1045300020746F75636820746865207363726565A5
:104540006E20746F20657869742074686973206DBB
:104550006F64652E0D0A5573657220496E7075740F
:104560003A2020002A2A20474C43444320647269A1
:1045700076657220696E697469616C697A617469C3
:104580006F6E204641494C4544202A2A200D0A00DE
:104590002A2A20525F4750545F4F70656E20415069
:1045A00049206661696C6564202A2A200D0A000092
:1045B0002A2A20494943204D4153544552204F70E7
:1045C000656E20415049206661696C6564202A2A25
:1045D000200D0A002A2A2049435520457874657227
:1045E0006E616C4972714F70656E20415049206652
:1045F00061696C6564202A2A200D0A00FFFFFFFF15
:1046000000000000000054545220524547474553D3
:1046100000FFFFFFFFFFFFFF303132333435363705
:104620003839414243444546FF00000000FF00FF87
:104630000000FF0000000000FFFFFFFF00FFFFFF82
:10464000FFFF00FFFF00FF0068616E646C655F653F
:1046500072726F7200FFFFFF06FFFF9806040100F1
:1046600000000039400208100000000000000000B7
:10467000154002210100000000000000001540026A
:104680003001000000000000000015400231000071
:10469000000000000000001540024014000000006F
:1046A000000000001540024133000000000000003F
:1046B000001540024202000000000000000015400A
:1046C00002430900000000000000001540024406FB
:1046D00000000000000000001540025070000000C3
:1046E00000000000001540025170000000000000B2
:1046F00000001540025200000000000000000015FC
:104700004002534800000000000000001540026015
:1047100007000000000000000015400261000000DA
:1047200000000000000015400262080000000000C8
:1047300000000015400263000000000000000000BF
:10474000154002A00000000000000000001540021B
:10475000A1030000000000000000154002A20900B3
:1047600000000000000000154002A30D0000000042
:1047700000000000154002A4060000000000000038
:1047800000154002A51600000000000000001540C2
:1047900002A6090000000000000000154002A70862
:1047A0000000000000000000154002A80300000007
:1047B0000000000000154002A907000000000000F2
:1047C0000000154002AA06000000000000000015CD
:1047D0004002AB050000000000000000154002ACE4
:1047E0000D0000000000000000154002AD2C00008C
:1047F000000000000000154002AE2600000000008E
:10480000000000154002AF000000000000000000A2
:10481000154002C00000000000000000001540022A
:10482000C1040000000000000000154002C20B009F
:1048300000000000000000154002C30F000000004F
:1048400000000000154002C4090000000000000044
:1048500000154002C51800000000000000001540CF
:1048600002C6070000000000000000154002C70853
:104870000000000000000000154002C80500000014
:104880000000000000154002C909000000000000FF
:104890000000154002CA07000000000000000015DB
:1048A0004002CB050000000000000000154002CCD3
:1048B0000C0000000000000000154002CD2D00009B
:1048C000000000000000154002CE2800000000009B
:1048D000000000154002CF000000000000000000B2
:1048E000154006FFFF98060406000000003940024C
:1048F0000021000000000000000015400201090036
:10490000000000000000001540020200000000004E
:10491000000000001540020300000000000000003D
:1049200000154002040100000000000000001540D6
:104930000205010000000000000000154002068092
:104940000000000000000000154002070500000004
:1049500000000000001540020802000000000000F6
:104960000000154002098000000000000000001552
:1049700040020A0000000000000000001540020B89
:104980000000000000000000001540020C0A0000BA
:104990000000000000001540020D0A0000000000A9
:1049A0000000001540020E000000000000000000A2
:1049B0001540020F0000000000000000001540023A
:1049C00010E0000000000000000015400211E400AB
:1049D000000000000000001540021204000000006A
:1049E000000000001540021300000000000000005D
:1049F00000154002140000000000000000001540F7
:104A00000215C0000000000000000015400216085A
:104A10000000000000000000154002170000000028
:104A20000000000000154002180000000000000017
:104A300000001540021900000000000000000015F1
:104A400040021A0000000000000000001540021B98
:104A50000000000000000000001540021C000000E3
:104A60000000000000001540021D000000000000D2
:104A700000000015400220010000000000000000BE
:104A80001540022123000000000000000015400234
:104A900022450000000000000000154002236700CE
:104AA000000000000000001540022401000000008A
:104AB0000000000015400225230000000000000057
:104AC00000154002264500000000000000001540CF
:104AD00002276700000000000000001540023001BE
:104AE000000000000000000015400231110000002D
:104AF000000000000015400232000000000000002D
:104B0000000015400233EE00000000000000001518
:104B1000400234FF00000000000000001540023594
:104B2000CB000000000000000015400236DA000053
:104B300000000000000015400237AD00000000003A
:104B400000000015400238BC00000000000000001A
:104B500015400239760000000000000000154002F8
:104B60003A6700000000000000001540023B2200F0
:104B7000000000000000001540023C220000000080
:104B8000000000001540023D22000000000000006F
:104B9000001540023E220000000000000000154009
:104BA000023F2200000000000000001540024022E9
:104BB000000000000000000015400253100000003B
:104BC000000000000015400254100000000000002A
:104BD0000000154006FFFF9806040700000000399A
:104BE0004002181D000000000000000015400226D1
:104BF000B200000000000000001540020277000033
:104C0000000000000000154002E1790000000000F3
:104C10000000001540021722000000000000000004
:104C2000154006FFFF980604000000000039407898
:104C300000000000000000000000FE000211000063
:104C4000000000000000000540050000000000001A
:104C500000000000FE00022900000000000000002B
:104C6000000540023A7000000000000000001540FE
:104C70000000000000000000000000FD00FFFFFF3A
:104C8000C0610D229C4E00024854000200000068E2
:104C9000E0015603E00100000100000000000000F8
:104CA000C0090022E00156030002000005000000D8
:104CB000000000002F02E0010500020000007E035A
:104CC0005603140003000000000000010100000072
:104CD000000000FF000000000000000000000000D5
:104CE00000000000000000000000000000000000C4
:104CF00000000000000000000000000000000000B4
:104D000001FFFF00DFDF0000510D00020000000086
:104D1000144D000201000200000800030303030019
:104D2000244D0002D8610D22304D000220540002B3
:104D3000D04D0002C04D00020000000261010000E1
:104D40000000000000000000000000000000000063
:104D50000000000000000000010000000100000051
:104D600001003E00030000000100000056030000A7
:104D7000110000001100000002000000010000000E
:104D8000E00100000300000048000000BA0000003D
:104D9000650D0002000000009C4D00020C010C0299
:104DA0000C050C060C040C0307E5F75707001F0061
:104DB000000000300000C0001001007D1001087DDF
:104DC0009F0400000B0000001A00000028000000F3
:104DD000F0610D22DC4D0002185400020000310089
:104DE00004000000E84D00023F1901000805000022
:104DF0001B01130713080B0007000000030C070139
:104E000003010000B90C00020000000000000000D7
:104E100001000000A086010014000000010C080938
:104E20000A0B00000000000000000000A50A0002BC
:104E300000000000384E0002010104100F000000C5
:104E400000000000000001000000000000800000E1
:104E500000010C00950D000200000000604E0002F1
:104E60000000000000000000000000000000000042
:104E70000000000000000000000000000000000032
:104E80000000FFFFDFDF0000000000000000000066
:104E9000000000000000000000000000960000007C
:104EA000A84E000200000000008000000200000088
:104EB00000800000030000000080000004000000EB
:104EC00000800000050000000080000007000000D6
:104ED000008000000B000000008000000E000000B9
:104EE000008000000F0000000000011C0001000015
:104EF0000000011C010100000000011C0201000073
:104F00000000011C030100000000011C040100005E
:104F10000000011C050100000000011C060100004A
:104F20000400000007010000000C010B0C01000050
:104F3000000C010B0D010000000C010B0E01000024
:104F4000000C010B0F0100000000011F0602000011
:104F50000000011907020000000001000802000023
:104F60000000010009020000000001000A02000028
:104F7000000001000B020000000C010B0003000008
:104F8000000C010B01030000000C010B02030000E8
:104F9000000C010B03030000000C010B04030000D4
:104FA000000C010B05030000000C010B06030000C0
:104FB000000C010B07030000000C010B08030000AC
:104FC000000C010B09030000000C010B0A03000098
:104FD000000C010B0B030000000C010B0C03000084
:104FE0000000010F00040000000001170104000090
:104FF0000000011702040000000001170304000074
:105000000500000004040000000001170504000072
:10501000000001170604000000000113070400004F
:105020000000010508040000000401050904000057
:10503000000401060A040000000401060B0400003D
:10504000000001060C040000000401060D0400002D
:10505000040000000E0400000000010F0F04000017
:10506000000001130005000000000113010500000D
:10507000000000000405000000000000050500001D
:105080000000000006050000040000000705000005
:10509000004000000A050000000401070B050000A5
:1050A000000401070C050000000001190D050000B7
:1050B000000001190E050000000001190F05000095
:1050C0000400000000060000000C010B01060000B7
:1050D000000C010B02060000000C010B030600008F
:1050E000000C010B04060000000C010B050600007B
:1050F000000C010B06060000000C010B0706000067
:10510000000C010B09060000000C010B0A06000050
:10511000000C010B0B060000000C010B0C0600003C
:10512000000C010B0D060000000C010B0E06000028
:10513000000C010B0F060000000001170007000023
:10514000000001170107000000000117020700001E
:10515000000001170307000000000117040700000A
:10516000000001170507000004000000060700000A
:1051700000000119070700000000010F08070000E8
:105180000000010F090700000000010F0A070000DE
:10519000000001190B070000000001190C070000B6
:1051A000000001190D070000000001190E070000A2
:1051B000000001190F0700000000011C000800009A
:1051C0000000011C010800000000011C0208000092
:1051D0000000011C030800000000011C040800007E
:1051E0000000011905080000000001190608000070
:1051F00000000119070800000000011C0808000059
:105200000400000009080000000000000A08000077
:10521000000000000B080000040000000D08000062
:10522000000001130E080000000001130F08000029
:105230000000011902090000000001190309000023
:105240000000011904090000000C010B0509000011
:10525000000C010B06090000000000000709000017
:10526000000C010B08090000000C010B09090000EB
:10527000000001190A090000000001190B090000D3
:10528000000001190C090000000001190D090000BF
:10529000000001190E090000000001190F090000AB
:1052A0000000010B000A000005000000010A0000D8
:1052B00000000104020A000000000104030A0000CB
:1052C00000000104040A000000000104050A0000B7
:1052D00000000000060A000000000000070A0000AD
:1052E0000000010B080A00000008010B090A000079
:1052F0000000010B0A0A0000000000000B0A000079
:10530000040000000D0A0000000001050E0A000064
:10531000000001050F0A000000000119000B000049
:1053200000000119010B000000000119020B000030
:1053300000000119030B000000000119040B00001C
:1053400000000119050B000000000119060B000008
:1053500000000119070B0000CD01D301D401D501D4
:10536000D601D701D8010400610062006300640027
:10537000A700000000000000000000000000000086
:10538000000000000000000000000000000000001D
:10539000000000000000000000000000000000000D
:1053A00000000000000000000000000000000000FD
:1053B00000000000000000000000000000000000ED
:1053C00000000000000000000000000000000000DD
:1053D00000000000000000000000000000000000CD
:1053E00000000000000000000000000000000000BD
:1053F00000000000000000000000000000000000AD
:10540000000000000000000000000000000000009C
:105410000000000000000000C50E00029D0E00020A
:1054200075120002C9170002B910000235120002FD
:10543000B10F0002091000022111000259100002F0
:10544000020403040404FFFF091F0002191C0002E8
:105450001D1F0002291F0002E51C0002351D00026D
:10546000251C0002791C0002A11C0002CD1C0002B8
:10547000191D0002491C00025D1C0002000102000F
:1054800000010203FFFFFFFF2000200010001000BA
:1054900010000800040001000401000203050607D3
:1054A0000C343440143434401C34344024343440FC
:1054B00001000200080010001000000000000000C1
:1054C000017A5200027C0E011B0C0D00100000003E
:1054D00018000000000000001000000000000000A4
:0454E00000000000C8
:1054E40008000022000010000000008FFFFFFF8F63
:1054F400FF00008FFF80008FFFFF008F80FF008F71
:1055040000FF008F00FF808F00FFFF8F0080FF8F60
:105514000000FF8F8000FF8FFF00FF8FFF00808F50
:105524008080808F00000000010100002D02000235
:04553400050200026A
:020000040300F7
:10A10000FFFFFFFFFFFFFFFFFFFFFFFFFFFFFFFF5F
:04A11000FFFFFFFF4F
:04A13400FFFFFFFF2B
:10A20000FFFFFFFFFFFFFFFFFFFFFFFFFFFFFFFF5E
:10A21000FFFFFFFFFFFFFFFFFFFFFFFFFFFFFFFF4E
:10A22000FFFFFFFFFFFFFFFFFFFFFFFFFFFFFFFF3E
:10A23000FFFFFFFFFFFFFFFFFFFFFFFFFFFFFFFF2E
:10A24000FFFFFFFFFFFFFFFFFFFFFFFFFFFFFFFF1E
:10A25000FFFFFFFFFFFFFFFFFFFFFFFFFFFFFFFF0E
:10A26000FFFFFFFFFFFFFFFFFFFFFFFFFFFFFFFFFE
:10A27000FFFFFFFFFFFFFFFFFFFFFFFFFFFFFFFFEE
:10A2800000000000FFFFFFFFFFFFFFFFFFFFFFFFDA
:10A29000FFFFFFFFFFFFFFFFFFFFFFFFFFFFFFFFCE
:10A2A000FFFFFFFFFFFFFFFFFFFFFFFFFFFFFFFFBE
:10A2B000FFFFFFFFFFFFFFFFFFFFFFFFFFFFFFFFAE
:10A2C000FFFFFFFFFFFFFFFFFFFFFFFFFFFFFFFF9E
:020000042703D0
:0400000502003BC1F9
:00000001FF
