:020000040200F8
:10000000D8E50022356500022D6200024565000238
:100010004565000245650002456500024565000230
:100020000000000000000000000000004565000224
:1000300045650002000000004565000245650002BC
:100040008D5900024125000299250002F125000288
:1000500089260002F126000249270002F13E000233
:10006000BF3A0002F33A0002273B00025B3B00026A
:10007000A94900020000000000000000000000008C
:100080000000000000000000000000000000000070
:100090000000000000000000000000000000000060
:1000A0000000000000000000000000000000000050
:1000B0000000000000000000000000000000000040
:1000C0000000000000000000000000000000000030
:1000D0000000000000000000000000000000000020
:1000E0000000000000000000000000000000000010
:1000F0000000000000000000000000000000000000
:1001000000000000000000000000000000000000EF
:1001100000000000000000000000000000000000DF
:1001200000000000000000000000000000000000CF
:1001300000000000000000000000000000000000BF
:1001400000000000000000000000000000000000AF
:10015000000000000000000000000000000000009F
:10016000000000000000000000000000000000008F
:10017000000000000000000000000000000000007F
:10018000000000000000000000000000000000006F
:10019000000000000000000000000000000000005F
:1001A000000000000000000000000000000000004F
:1001B000000000000000000000000000000000003F
:1001C0000348044B834202D0034B03B118477047E6
:1001D0004C0000224C00002200000000064B0749A2
:1001E000C91A891048BF0131491003D0044B0BB123
:1001F00001481847704700BF4C0000224C00002205
:100200000000000010B5064C237843B9FFF7D8FF73
:10021000044B13B10448AFF300800123237010BDD9
:100220008000002200000000DC7E000208B5054BC3
:100230001BB105490548AFF30080BDE80840FFF752
:10024000CDBF00BF0000000084000022DC7E000261
:1002500080B500AF0C4B9B681B680B4A12680A49BB
:10026000496810469847084B9B685B68064A1268C5
:1002700010469847054B00221A60034B1B68044A3E
:10028000136000BF80BD00BF847800029C00002284
:10029000A000002280B500AF044B9B689B68034A16
:1002A00012681046984700BF80BD00BF84780002E6
:1002B00080B500AF044B9B685B68034A1268104628
:1002C000984700BF80BD00BF8478000280B500AFB2
:1002D0000C4B9B689B680B4A1268104698470A4B68
:1002E00000221A60074B9B68DB68064A12681046BA
:1002F0009847044B9B685B68024A1268104698470F
:1003000000BF80BD847800029C00002280B400AF52
:10031000034B1B681846BD465DF8047B704700BF61
:100320009C00002280B483B000AF064B1B689B6822
:100330009B6C7B607B6818460C37BD465DF8047B80
:10034000704700BFA000002280B483B000AF786087
:100350007B681B79002B04D1054B1B680133044AD1
:10036000136000BF0C37BD465DF8047B704700BFCB
:100370009C00002280B582B000AF264B3B60A822D3
:100380000021386806F064FA3B6803221A613B6872
:1003900003225A613B68204A9A613B681F4ADA612E
:1003A0003B684FF400621A623B6800229A623B6825
:1003B00000225A623B680022DA623B68164A1A66DB
:1003C0003B68174A5A663B6810229A663B680022CF
:1003D0001A673B680022DA663B6800225A67BFF35F
:1003E0005F8F00237B600CE07B68C3F10F030D4A35
:1003F000D1563A687B6813440A461A707B68013309
:100400007B607B680F2BEFD9BFF35F8F00BF08378E
:10041000BD4680BDA4000022E46800024C01002219
:100420004C090022F068000280B58AB000AFF86085
:10043000B9607A6000233B62FB68DB68FB61FB68A4
:100440001B69BB61BA69FB699A4205D9BA69FB6944
:10045000D31A013B7B6207E0FB689A68B969FB69C4
:10046000CB1A1344013B7B62FB689A68FB69D31A81
:100470007A6A934228BF13467B627A6A7B6893420A
:1004800028BF13467B62FB685A68FB6913447B6193
:100490007A6AB968786906F0E3F93A6A7B6A1344C4
:1004A0003B62BA687B6A1344BB607A687B6AD31A82
:1004B0007B60FA697B6A1344FB61FB689B68FA699D
:1004C0009A4201D10023FB61BFF35F8FFB68FA6999
:1004D000DA607B68002BB2D13B6A18462837BD46EC
:1004E00080BD80B588B000AFF860B9607A60FB6805
:1004F000DB68FB61FB689A68FB69D31ABB61BA6968
:100500007B689A4211D9FB685A68FB6913443B61C6
:100510007A68B968386906F0A3F9BFF35F8FFA69A2
:100520007B681A44FB68DA601FE0BB697B61FB688B
:100530005A68FB6913443B617A69B968386906F007
:100540008FF97A68BB69D31A7B61FB685B683B6192
:10055000BA68BB6913447A691946386906F080F9AC
:10056000BFF35F8FFB687A69DA6000BF2037BD4652
:1005700080BD80B487B000AF78607B681B693B6149
:100580007B68DB68FB603A69FB689A4208D87B6845
:100590009A68FB68D21A3B691344013B7B6104E013
:1005A0003A69FB68D31A013B7B617B6918461C37AB
:1005B000BD465DF8047B704780B588B000AFF86039
:1005C000B9607A60BB68BB61FB685A1C13465B006C
:1005D0001344DB001F4A13447B617B695B69022B78
:1005E00029D0022B2ED8002B02D0012B13D029E0CA
:1005F0007869FFF7BEFF38613A697B689A4202D298
:100600000023FB6121E07B68FB617A68B969786946
:10061000FFF767FF19E07869FFF7ABFF38617A6889
:100620003B69934228BF1346FB61FA69B96978694F
:10063000FFF757FF09E07A68B9697869FFF7F4FEB8
:10064000F86102E00023FB6100BFFB691846203718
:10065000BD4680BDA400002280B588B000AFF86020
:10066000B9607A600E4BFB61FB691B785BB2532B60
:1006700001D0FFF77FFEEFF311834FF0200181F3EC
:100680001188BB617A68B968F868FFF795FF7861EF
:10069000BB6983F311887B6918462037BD4680BD4E
:1006A000A400002280B584B000AF78600B46FB70D8
:1006B0007B689B68FB60FB685A1C7B685B689A429E
:1006C0000ED87B681A68FB681344FA781A70FB68C6
:1006D0005A1C7B689A607B68DB685A1C7B68DA600E
:1006E0007B689A687B685B689A4215D17B68186959
:1006F0007B6819687B689B681A46FFF7ADFF024666
:100700007B689B689A4204D07B684FF0FF32DA60C6
:1007100002E07B6800229A6000BF1037BD4680BDB2
:1007200080B58AB000AFF860B9607A603B60BB68A2
:100730003B6201237B620123FB6107E03A6A7B682D
:10074000B2FBF3F33B62FB690133FB613A6A7B68FE
:100750009A42F3D23A68FB699A4201D93B68FB613D
:100760007B6B03F00103002B26D13B6B002B23D0C6
:100770007B6B03F00203002B05D03B68002B02D1FA
:100780003023FB7601E02023FB760CE03B6B013B42
:100790003B6397F91B301946F868FFF783FFFB6846
:1007A000DB68002B07DB3B6B002B05D0FA693B6B4A
:1007B0009A42EBD300E000BFFB68DB68002B56DBFE
:1007C0003B68012B03D93B68013B3B6009E0BA68F9
:1007D0007B6AB2FBF3F37B617A697B689A4200D251
:1007E00005E07B6A7A6802FB03F37B62E8E7BA689C
:1007F0007B6AB2FBF3F37B617B697A6A02FB03F3EA
:10080000BA68D31ABB601C4A7B69134493F9003061
:100810001946F868FFF746FFFB68DB68002B08DB2A
:100820007A6A7B68B2FBF3F37B627B6A002BDED1D2
:1008300000E000BF7B6B03F00103002B17D03B6B84
:10084000002B14D00AE03B6B013B3B632021F8688E
:10085000FFF728FFFB68DB68002B07DB3B6B002BF7
:1008600005D0FA693B6B9A42EDD300E000BF00BFB0
:100870002837BD4680BD00BF0C69000280B588B036
:1008800002AFF860B9607A603B60BB68002BB8BF0C
:100890005B423B6101237B6107E07B683A6992FB25
:1008A000F3F33B617B6901337B617B683A699A4270
:1008B000F3DA3A687B699A4201D93B687B613B6A0B
:1008C000002B0AD0BB68002B04DB7B6A03F0040317
:1008D000002B02D03B6A013B3B627B6A03F00203C0
:1008E000002B02D03B68002B1CD07B6A03F0010375
:1008F000002B17D13B6A002B14D00AE03B6A013B66
:100900003B622021F868FFF7CDFEFB68DB68002B17
:1009100007DB3B6A002B05D07A693B6A9A42EDD32C
:1009200000E000BFFB68DB68002B4ADBBB68002BE4
:1009300007DABB685B42BB602D21F868FFF7B2FEA7
:1009400008E07B6A03F00403002B03D02B21F86836
:10095000FFF7A8FEFB68DB68002B32DB7B6A03F045
:100960000203002B1FD07B6A03F00103002B1AD176
:100970003B68002B17D13B6A002B14D00AE03B6A7E
:10098000013B3B623021F868FFF78CFEFB68DB68B7
:10099000002B07DB3B6A002B05D07A693B6A9A4241
:1009A000EDD300E000BFFB68DB68002B09DBB96812
:1009B0007B6A01933B6A00933B687A68F868FFF7AB
:1009C000AFFE00BF1837BD4680BDFFFF80B5A2B0A7
:1009D00002AFF860B9607A6007F110033B6540230D
:1009E0007B650023BB65FB683B660023FB65BB683A
:1009F0001B7887F87F30BB680133BB6097F97F3085
:100A0000002B00F0A48197F97F30252B40F09281D4
:100A100000233B670123BB67BB681B7887F87F30E7
:100A200097F97F30233B0D2B3ED801A252F823F0DB
:100A3000990A0002A90A0002A90A0002A90A0002F2
:100A4000A90A0002A90A0002A90A0002A90A0002D2
:100A5000890A0002A90A0002690A0002A90A000222
:100A6000A90A0002790A00023B6F43F001033B67C9
:100A7000BB680133BB601AE03B6F43F002033B6786
:100A8000BB680133BB6012E03B6F43F004033B677C
:100A9000BB680133BB600AE03B6F43F008033B6770
:100AA000BB680133BB6002E00023BB6700BFBB6FC4
:100AB000002BB1D10023FB66BB681B7887F87F3021
:100AC00097F97F302F2B12DD97F97F30392B0EDC11
:100AD000BB680133BB60FA6E13469B0013445B0096
:100AE0001A4697F97F301344303BFB66E4E7002356
:100AF0007B67BB681B7887F87F3097F97F302E2B98
:100B00001DD1BB680133BB60BB681B7887F87F30A1
:100B100097F97F302F2B12DD97F97F30392B0EDCC0
:100B2000BB680133BB607A6F13469B0013445B00C4
:100B30001A4697F97F301344303B7B67E4E7BB6884
:100B40001B7887F87F3097F97F306C2B03D097F9AB
:100B50007F30682B07D1BB680133BB60BB681B7853
:100B600087F87F30EFE797F97F30252B00F0D680AC
:100B7000252BC0F2DA80782B00F3D780582BC0F2F7
:100B8000D480583B202B00F2D08001A252F823F0F1
:100B9000870C00022B0D00022B0D00022B0D000212
:100BA0002B0D00022B0D00022B0D00022B0D00025D
:100BB0002B0D00022B0D00022B0D0002150C000264
:100BC0003B0C00022B0D00022B0D00022B0D00022E
:100BD0002B0D00022B0D00022B0D00022B0D00022D
:100BE0002B0D00022B0D00022B0D00022B0D00021D
:100BF000F70C00022B0D00022B0D0002AD0C0002C1
:100C00002B0D0002610C00022B0D00022B0D0002C7
:100C1000870C00027B681B68191D7A6811601B68CD
:100C2000BB67BB6F87F8673097F9672007F1500300
:100C300011461846FFF736FD78E07B681B68191DE2
:100C40007A6811601B68BB6707F150003B6F019326
:100C5000FB6E00937B6F0A22B96FFFF70FFE65E012
:100C60007B681B68191D7A6811601B68BB67B96FC8
:100C700007F150003B6F0193FB6E00937B6F0A22DC
:100C8000FFF74EFD52E07B681B68191D7A68116002
:100C90001B68BB67B96F07F150003B6F0193FB6E98
:100CA00000937B6F1022FFF73BFD3FE07B681B68E2
:100CB000191D7A6811601B68BB66BB6E002B01D1E1
:100CC0002E4BBB66BB6E1B7887F87F30BB6E013343
:100CD000BB6697F97F30002B0BD097F97F2007F187
:100CE000500311461846FFF7DDFCFB6D002BE9DAD7
:100CF0001CE000BF1AE07B681B68191D7A68116050
:100D00001B68BB67B96F07F15000002301930823EC
:100D1000009308231022FFF703FD07E007F15003BB
:100D200025211846FFF7BEFC00E000BFBB68013379
:100D3000BB6007E097F97F2007F150031146184682
:100D4000FFF7B0FCFB6D002BBFF651AE00E000BF1B
:100D5000FB6D002B0DDDBB6D002B06D0BA6D07F1CE
:100D600010031946F868FFF777FCFB6DBA6D134462
:100D7000FB65FB6D18468037BD4680BD04690002E7
:100D80000EB480B585B000AF786007F12003BB607A
:100D900007F108031A46F9697868FFF717FEF8604B
:100DA000FB6818461437BD46BDE8804003B0704765
:100DB00080B588B002AF00237B60FFF787FAFFF7AA
:100DC000A5FA03467B61FFF7ADFA03463B611F4876
:100DD00000F0FCF8FFF75EFAFFF798FA0346FB60B5
:100DE000FFF7A0FA0346BB60FA687B69D11A184B7B
:100DF000A3FB0123DA0813469B0013445B00CA1AC5
:100E0000642303FB02F2B9683B69CB1A642103FB3C
:100E100001F1104B5B685B68B1FBF3F313447B603B
:100E2000FA687B69D31A0A4AA2FB0323DA087B68B3
:100E30004DF28051009108490020FFF7A1FFFFF714
:100E400037FA00BF1837BD4680BD00BFC009002279
:100E5000CDCCCCCC847800021C69000280B588B06F
:100E600002AF00237B60284B1A68284B1B689B004D
:100E70001344274A1360FFF70DFAFFF727FAFFF72D
:100E800045FA03467B61FFF74DFA03463B61214873
:100E900000F04AF8FFF7FEF9FFF738FA0346FB6067
:100EA000FFF740FA0346BB60FA687B69D11A1A4B18
:100EB000A3FB0123DA0813469B0013445B00CA1A04
:100EC000642303FB02F2B9683B69CB1A642103FB7C
:100ED00001F1124B5B685B68B1FBF3F313447B6079
:100EE000FA687B69D31A0C4AA2FB0323DA087B68F1
:100EF0000B4900910B490020FFF742FFFFF7D8F99B
:100F000000BF1837BD4680BD640900225C0900227D
:100F10006809002200000068CDCCCCCC84780002A7
:100F20000005190058690002B0B491B000AF7860B4
:100F3000234B9B88FB86224BDB88BB86204B9B6820
:100F4000204A1360204B07F10C041D460FCD0FC43F
:100F500095E80F0084E80F00FB8EDB087B860023FA
:100F6000FB6322E00023BB6312E07B8EBA6BB2FB13
:100F7000F3F3FB62BB6B9B007A681A44FB6A9B002D
:100F800040333B4453F8343C1360BB6B0133BB63C9
:100F9000FB8EBA6B9A42E8D30A4B1B689B007A68B7
:100FA00013447B60FB6B0133FB63BB8EFA6B9A428D
:100FB000D8D300BF00BF4437BD46B0BC704700BFA8
:100FC00094770002600900229469000280B489B01D
:100FD00000AF7860204B1B8BFB821F4B5B8BBB826F
:100FE0001D4BDB693B61BB8A5B08FB8100237B7384
:100FF0000023FB6125E000237B73FB89FA699A4299
:1010000002D200237B7301E0FF237B730023BB61CB
:1010100008E07A68BB6913447A7BD2B21A70BB6964
:101020000133BB61FB8ADB089BB21A46BB69934262
:10103000EFD33B69DB087A6813447B60FB690133BB
:10104000FB61BB8AFA699A42D5D300BF00BF24373F
:10105000BD465DF8047B70479477000280B483B08E
:1010600000AF78607B68002B03D07B681A79044B53
:101070001A7000BF0C37BD465DF8047B704700BF97
:101080006C09002280B584B002AF00237B6000238E
:101090003B603B46184604F0D3FFFB781946BB780B
:1010A0007A78019200930B46154A16490020FFF703
:1010B00067FE15490020FFF763FEFFF7C9F801201E
:1010C00005F0B4F9114A0021114805F0C1FB4DF2B9
:1010D000805200210F4805F0BBFB00F0CBF9012244
:1010E0000D490E4803F090FF78607B68002B00D01C
:1010F00000BEFFF7B3FEFFF75BFE00BFFDE700BFDA
:10110000B4690002B8690002DC6B00020005190036
:1011100000000068C00900220800002270DF0022E1
:1011200080B582B000AF0346FB71FB79022B05D17D
:10113000044B5B681946044801F0D0FB00BF083738
:10114000BD4680BD1C78000280DF002280B588B0DB
:1011500000AF78600023BB617B68FB6137E007F17B
:10116000080300221A605A609A60DA60FB69DB7A31
:101170007B72FB691B7BBB72FB691B78BB81FB69C4
:1011800001333B617B7AFE2B07D17B681B784FF4E0
:101190007A71184604F06CFF16E0114B00221A70A9
:1011A00007F1080319460F4800F04EFEB8610E49DA
:1011B000B86900F0A1F800BF094B1B78DBB283F0DF
:1011C0000103DBB2002BF7D1FB690D33FB61FB6937
:1011D000DB7AFD2BC3D100BF00BF2037BD4680BDE9
:1011E0008109002258DF0022A874000280B582B075
:1011F00000AF00237B600E490E4803F062F978606F
:101200000D49786800F078F80C4803F0C1FE78606A
:101210000B49786800F070F80A4802F037FE7860F1
:101220000949786800F068F800BF0837BD4680BDFE
:101230007409002288DF0022D074000270DF0022CF
:10124000F074000240DF00221075000280B483B009
:1012500000AF7860074B1B781A467B685B689A4240
:1012600002D1054B01221A7000BF0C37BD465DF854
:10127000047B7047987600028209002280B500AF97
:10128000002240F601211B4801F0DEFB042240F25F
:101290000A51184801F053FB0121C82004F0E8FE70
:1012A000012240F20A51134801F0CEFB0121C8206F
:1012B00004F0DEFE012240F601210E4801F0C4FBDD
:1012C0004FF47A710A2004F0D3FE002240F20A5152
:1012D000084801F0B9FB4FF47A71642004F0C8FEAD
:1012E0004FF4A04240F20A51024801F028FB00BF2F
:1012F00080BD00BF80DF002280B584B000AF786081
:1013000039607B68002B5FD0314A32490020FFF7FB
:1013100037FD39680020FFF733FD2F4B1B68002B8A
:101320000ED02D4803F021F90346002B08D0284A9F
:1013300028490020FFF724FD28490020FFF720FD61
:10134000274B1B78002B0ED0254803F081FD034668
:10135000002B08D01E4A1F490020FFF711FD21492C
:101360000020FFF70DFD204B1B68002B0ED01E4800
:1013700002F09DFD0346002B08D0154A15490020B8
:10138000FFF7FEFC19490020FFF7FAFC184BDB6859
:10139000002B0ED0164801F087FF0346002B08D023
:1013A0000B4A0C490020FFF7EBFC12490020FFF725
:1013B000E7FC7B68FB60FB68002B05D0FA680E49F0
:1013C0000020FFF7DDFC00BE00BF1037BD4680BD2A
:1013D000887600023C75000288DF00225875000202
:1013E00070DF00227075000240DF00228C75000261
:1013F000A8DF0022B0750002D075000280B483B06F
:1014000000AF78607B681B78032B02D1044B01226C
:101410001A7000BF0C37BD465DF8047B704700BFF3
:101420008009002280B483B000AF78607B681B78AD
:10143000002B02D0052B09D011E07B685B68B3F567
:10144000807F0BD1094B01221A7007E07B685A6834
:10145000074B1B681343064A136000E000BF00BF40
:101460000C37BD465DF8047B704700BF8109002240
:101470007009002280B582B000AF00237B6017495D
:10148000174803F0F3FB786016497868FFF734FFDC
:101490001549164802F0FEFE786015497868FFF796
:1014A0002BFFFFF7EBFE1349134801F083FE786032
:1014B00012497868FFF720FF1148FFF747FE1149EE
:1014C000114802F07BFC786010497868FFF714FF40
:1014D000FFF78CFE00BF0837BD4680BD9477000241
:1014E00070DF0022F07500026478000288DF0022BD
:1014F0001C76000298780002A8DF00223C760002E9
:10150000806E00029876000240DF002260760002C2
:1015100080B500AFFFF7B6FD0023184680BDFFFF82
:1015200080B487B000AF0346FB712B4B1B6A7B6115
:10153000FB797A6922FA03F303F00F033B61FB792D
:10154000202B02D1254B1B683FE0234B93F824301E
:10155000DBB203F00F03FB60FA683B69134303F04F
:101560000803002B2AD0FB6803F00803002B06D0E9
:10157000FB6803F00703032202FA03F303E00122EE
:10158000FB6802FA03F3FB603B6903F00803002BDE
:1015900006D03B6903F00703032202FA03F303E0DA
:1015A00001223B6902FA03F33B610C4B1B68FA68AA
:1015B00003FB02F23B69B2FBF3F306E0074B1A6848
:1015C000FB689A403B6922FA03F318461C37BD4674
:1015D0005DF8047B704700BF00E00140D0E10022CD
:1015E00080B586B000AF786039607B687B610C2085
:1015F000FFF796FF38613B692E4AA2FB03239B0C41
:10160000DBB22D4A013BD9B2136861F307031360C3
:10161000294A136943F001031361274BDB6903F087
:101620000103012BF9D1244A3B681B685360224A0D
:101630003B681B79C3F30403D9B2D36861F3040395
:10164000D3601D4A936823F0010393601A4BDB6952
:1016500003F48073B3F5807FF8D13B689B68FB602F
:10166000FB681B68C3F31202134B5A62FB681A79BA
:10167000114B9A62FB685A790F4BDA620E4AFB688B
:101680009B6813630C4AFB68DB685363FB681A7C36
:10169000094B9A63084A136A43F0010313627B699A
:1016A0003A685A607B69054A1A6000231846183761
:1016B000BD4680BD83DE1B43006C34405049504D15
:1016C00080B485B000AF78607B68FB600C4A136A19
:1016D00023F0010313620A4A936843F00103936005
:1016E000074A136923F001031361FB6800221A60A3
:1016F000002318461437BD465DF8047B704700BFD1
:10170000006C344080B483B000AF03463960FB7195
:1017100097F90730002B0ADB3B68DAB20C4997F9DE
:1017200007301201D2B20B4483F800230AE03B6871
:10173000DAB20849FB7903F00F03043B1201D2B27D
:101740000B441A7600BF0C37BD465DF8047B70472A
:1017500000E100E000ED00E080B483B000AFEFF303
:1017600003837B607B683B603B88C3F308039BB2C9
:10177000DBB2103BDBB25BB218460C37BD465DF8FE
:10178000047B704780B483B000AF03463960FB71BF
:1017900097F9073004493A6841F8232000BF0C3715
:1017A000BD465DF8047B704748E0002280B483B0FA
:1017B00000AF0346FB7197F90730044A52F8233013
:1017C00018460C37BD465DF8047B704748E00022A0
:1017D00080B483B000AF0346FB710C4997F9073022
:1017E00003F5C65251F8223023F4803341F82230F9
:1017F000064A97F9073003F5C65352F8233000BF65
:101800000C37BD465DF8047B704700BF00600040A8
:1018100080B584B000AF0346FB7197F907301846D6
:10182000FFF7D6FFBFF35F8F00BF97F90730FB606C
:10183000FB6803F01F02074997F907305B09012095
:1018400000FA02F2603341F8232000BF1037BD4692
:1018500080BD00BF00E100E080B584B000AF03466A
:10186000B9607A60FB7397F90F30B9681846FFF7D3
:1018700049FF97F90F3079681846FFF783FF00BFDB
:101880001037BD4680BDFFFF80B485B000AF034672
:10189000FB7197F90730FB60FB6803F01F020749F3
:1018A000FB685B09012000FA02F241F8232000BF27
:1018B0001437BD465DF8047B704700BF00E100E0CF
:1018C00080B582B000AF0346FB7197F90730184628
:1018D000FFF79EFF97F907301846FFF7D5FF00BFC7
:1018E0000837BD4680BDFFFF80B485B000AF03461A
:1018F000FB7197F90730FB60FB6803F01F020B498F
:1019000097F907305B09012000FA02F2203341F811
:101910002320BFF34F8F00BFBFF36F8F00BF00BF07
:101920001437BD465DF8047B704700BF00E100E05E
:1019300080B584B000AF0346B9607A60FB7397F955
:101940000F307A68B9681846FFF786FF97F90F30AD
:101950001846FFF7B5FF00BF1037BD4680BDFFFF3B
:1019600080B58EB000AF786039607B687B63624B76
:1019700003F58053D3F85034C3F38013DBB2002B4C
:1019800001D11E23B3E05D4B00221A705C4B002294
:101990001A707B6B3A689A6000233B63EFF3108305
:1019A000FB61FB693B6301233B623B6A83F3108865
:1019B00000BF544B9B68534A23F480639360514BA0
:1019C0009B680121962004F053FB3B6B7B627B6A92
:1019D00083F3108800BF3B681B681A683B681B686C
:1019E0005B6819461046FFF7FBFDF862FB6A002BA7
:1019F00001D0FB6A7BE000F0CBFB386800F0E8FB2D
:101A0000386800F065FC3B689B6EBB623E4ABB6A6F
:101A1000DB68C2F808323C4ABB6A1B69C2F808336B
:101A2000394ABB6A5B69C2F82833374ABB6A9B698B
:101A3000C2F81834344ABB6ADB69C2F8D835324A76
:101A4000BB6A1B6AC2F818362F4B304AC3F8D4253C
:101A50002D4B2E4AC3F814262B4B2D4AC3F81424C1
:101A6000294B2C4AC3F804227B6B00225A613B6845
:101A70001A6E7B6BDA603B685A6E7B6B1A61BB6ACD
:101A8000796B184600F034FDBB6A0233796B184657
:101A900000F02EFDBB6A0433796B184600F028FD78
:101AA000BB6A0633796B184600F022FDBB6A083327
:101AB000796B184600F01CFDBB6A0A33796B184637
:101AC00000F016FD7B6B144A1A60786B00F036FC50
:101AD000386800F09DFC06233B737B6B1B69BB6180
:101AE00007F10C031946786B00F024FB002318461D
:101AF0003837BD4680BD00BF00203440E8DF0022FB
:101B0000E9DF002200302040006034401001097DF0
:101B10000B00D00007E5F7574449504D80B58AB017
:101B200000AF78607B687B62786A00F019FA3862EF
:101B30003B6A002B01D03B6A4EE0786A00F038FC2B
:101B40007B6A9B68FB61FB699B6EBB61BB69184646
:101B500000F0E0FCBB690233184600F0DBFCBB6917
:101B60000433184600F0D6FCBB690633184600F073
:101B7000D1FCBB690833184600F0CCFCBB690A33C2
:101B8000184600F0C7FCFB691B681B681846FFF786
:101B900097FD7B6A00221A6000237B61EFF31083BC
:101BA000BB60BB687B610123FB60FB6883F310882B
:101BB00000BF0B4B9B680A4A43F480639360084B59
:101BC0009B680121962004F053FA7B693B613B69D5
:101BD00083F3108800BF3B6A18462837BD4680BD96
:101BE0000030204080B588B000AF78607B68FB6132
:101BF00007233B72FB691B697B6107F108031946E8
:101C0000F86900F097FA214B1B69C3F30003DBB2BC
:101C1000002B06D11D4B1B69C3F30013DBB2002B55
:101C200001D008232DE0FB699B68BB61BB691B7A6F
:101C30001B0203F48072BB695B7A5B0203F40073DE
:101C40001A43BB699B7A9B0203F4806313430F4AD8
:101C500043F00103C2F8003400BF0C4BD3F810343A
:101C6000C3F3C003DBB2012B07D0094B1B78DBB2F7
:101C700083F00103DBB2002BEFD1054B01221A7078
:101C8000002318462037BD4680BD00BF00603440A9
:101C9000E9DF002280B584B000AF78607B68FB602C
:101CA000F86800F05DF9034618461037BD4680BD60
:101CB00080B485B000AF78600B46FB707B68FB603A
:101CC000FB7803F00203DBB2002B09D0FB681B7921
:101CD00083F00103DBB2002B02D04FF0805300E011
:101CE0000023BB60FB7803F00103DBB2002B09D0BB
:101CF000FB685B7983F00103DBB2002B02D04FF06D
:101D0000807300E00023BA681343BB60FB689A79D4
:101D1000FB781343DAB2FB689A71FB685B79002B9E
:101D200005D1FB7803F00103DBB2002B01D00123C6
:101D300000E0002303F00103DAB2FB685A71FB688C
:101D40001B79002B05D1FB7803F00203DBB2002BDB
:101D500001D0012300E0002303F00103DAB2FB68A5
:101D60001A71054ABB68C2F80C31002318461437B3
:101D7000BD465DF8047B70470060344080B485B098
:101D800000AF78600B46FB707B68FB60FB7803F06C
:101D90000203DBB2002B06D0FB681B79002B02D0BC
:101DA0004FF0005300E00023BB60FB7803F0010319
:101DB000DBB2002B06D0FB685B79002B02D04FF022
:101DC000007300E00023BA681343BB60FB685B79D3
:101DD000002B07D0FB7803F00103DBB2002B01D10D
:101DE000012300E0002303F00103DAB2FB685A711B
:101DF000FB681B79002B07D0FB7803F00203DBB2F2
:101E0000002B01D1012300E0002303F00103DAB22B
:101E1000FB681A710B4ABB68C2F80C31FB689B79EE
:101E20005AB297F90330DB435BB213405BB2DAB2CC
:101E3000FB689A71002318461437BD465DF8047B91
:101E4000704700BF0060344090B585B000AF786047
:101E500039603B689B7803F04003002B14BF0123DB
:101E60000023FB73FB7B83F00103DBB2BB73284BC6
:101E70001B69C3F30003DBB2002B06D1244B1B69A3
:101E8000C3F30013DBB2002B01D008233BE0214B4E
:101E9000BB60BB7BDB01BA681344BB60BC68231D1D
:101EA000BB60386800F092F803462360BC68231DCD
:101EB000BB60386800F0F2F803462360BC68231D5D
:101EC000BB60386800F0F6F803462360BC68231D49
:101ED000BB60386800F017F903462360BB7B002B1A
:101EE00001D10D4B01E04FF40003094AC2F8C0359F
:101EF000BB7B012B01D1084B01E04FF40003044AE6
:101F0000C2F80036002318461437BD4690BD00BF06
:101F100000603440806734400100800080B483B0AA
:101F200000AF786039600D4B1B699AB23B681A802C
:101F30000A4BD3F820223B685A60084BD3F824227E
:101F40003B689A60054A3B689B68C2F828320023C8
:101F500018460C37BD465DF8047B7047006034407E
:101F600080B483B000AF7860164BD3F81034C3F35D
:101F70008003DBB2002B1DD0124AD2F8003443F0AC
:101F80000203C2F8003400BF0E4BD3F81034C3F381
:101F90004003DBB2012B04D00B4B1B78DBB2002BD0
:101FA000F2D1094B00221A70064B064AD3F81034BE
:101FB000C2F81434002318460C37BD465DF8047B84
:101FC000704700BF00603440E9DF002280B487B072
:101FD00000AF78607B685B7803F00F03082BCCBF01
:101FE00001230023FB75FB7D002B0AD07B689B88B7
:101FF000DBB23B737B689B881B0A9BB2DBB27B73B3
:1020000014E07B689B88002B03D07B689B681B785F
:1020100000E000233B737B689B88012B04D97B681D
:102020009B6801331B7800E000237B737B689B78FF
:1020300003F00303BB757B689B7803F04003002B20
:1020400014BF01230023DBB27B753B7B1A467B7BED
:102050001B029BB21A437B685B781B0403F47C135E
:102060001A437B681B789B0503F440031A43FB7DEE
:102070001B0603F080731A437B7D5B0603F000733D
:102080001A43BB7D9B0603F0406313433B613B69EE
:1020900018461C37BD465DF8047B704780B483B09A
:1020A00000AF78604FF0807318460C37BD465DF87E
:1020B000047B704780B485B000AF78607B689B7804
:1020C00003F02003002B14BF01230023FB73FB7BD1
:1020D000002B07D07B689B7803F00F03002B01D007
:1020E000012300E00023BB73FB7B9B0503F480020C
:1020F000BB7B1B061343BB60BB6818461437BD4649
:102100005DF8047B704780B485B000AF78607B6871
:102110009B7803F00303FB73FB7B002B02D07B68EF
:10212000DB6801E07B689B6818461437BD465DF8A4
:10213000047B704790B589B000AF786039607B68E8
:102140005B69FB61FB69002B02D13B68FB610BE023
:10215000FB6907F10C040FCB84E80F00FA693B68B8
:1021600014460FCB84E80F007B68DB68F86998475A
:102170007B685B69002B07D07B685B691C4607F1B5
:102180000C030FCB84E80F0000BF2437BD4690BD81
:1021900080B400AF0D4AD2F8003143F48073C2F826
:1021A00000310A4AD2F8103143F00103C2F810316D
:1021B000064BD3F8143103F01F031F2BF8D100BFD7
:1021C00000BFBD465DF8047B704700BF006034402F
:1021D00080B483B000AF78607B68DB7A013B3B4A18
:1021E00043F44073C2F80031384A7B68197BD2F857
:1021F000083161F30703C2F808317B689B6A9AB221
:102200007B6893F82C301B0403F480331A437B68FB
:1022100093F82D301B0503F470031A437B6893F881
:102220002E305B0703F000531A437B6893F82F307E
:102230009B0703F080431A437B6893F83030DB0739
:1022400022491343C1F820317B685B681B689A0000
:1022500040F6FC7313407A6852685268120402F424
:102260007F021A437B685B689B681B061749134310
:10227000C1F814337B685B68DB68144AC3F3090355
:10228000C2F81833114A7B68DB69C2F810320F4A72
:102290007B681B6AC2F814320C4A7B685B6AC2F81E
:1022A00018320A4A7B681B69C2F8E032074A7B6829
:1022B0005B69C2F8E432054A7B689B69C2F8E83280
:1022C00000BF0C37BD465DF8047B704700603440AA
:1022D00080B483B000AF7860174AD2F8103143F46D
:1022E0008033C2F81031144BD3F8143103F4034295
:1022F0007B68DB7A5B00013B1B029A42F3D10E4AFA
:10230000D2F8103123F48033C2F810310A4AD2F8DF
:10231000103123F00103C2F81031074BD3F8143108
:1023200003F01F03002BF8D100BF00BF0C37BD46E0
:102330005DF8047B704700BF0060344080B485B016
:1023400000AF78607B689B68FB60174AD2F8003169
:1023500043F48073C2F80031144B01221A70FB68F9
:102360005B7B002B01D0032300E001230E4AC2F85F
:10237000043100BF0C4BD3F82033C3F38063DBB2CE
:102380001A46FB685B7B9A4204D0084B1B78DBB291
:10239000022BEFD1054B02221A7000BF1437BD4645
:1023A0005DF8047B704700BF00603440E8DF002226
:1023B00080B485B000AF78607B689B68FB60124A90
:1023C000D2F8043123F00103C2F804310F4B032289
:1023D0001A7000BF0C4BD3F82033C3F3C063DBB2D9
:1023E0001A46FB685B7B9A4204D0084B1B78DBB231
:1023F000002BEFD1054B00221A7000BF1437BD46E9
:102400005DF8047B704700BF00603440E8DF0022C5
:1024100080B483B000AF78607B6893F83130DB0321
:102420009AB27B6893F832301B0403F47C131A438E
:102430007B6893F833309B0503F440032949134329
:10244000C1F820347B685B6BC3F30B027B6893F8A5
:102450003830DB039BB21A437B68DB6B1904224BD9
:102460000B4020491343C1F828347B681B6CC3F32D
:102470000C027B685B6C19041C4B0B40194913431D
:10248000C1F82C347B689B6CC3F30B027B6893F818
:102490004C30DB039BB21A437B681B6D1904124B53
:1024A0000B4010491343C1F830347B685B6DC3F3B4
:1024B0000C027B689B6D19040C4B0B4009491343BC
:1024C000C1F834347B68DB6D9A00064943F6FC732F
:1024D0001340C1F8043400BF0C37BD465DF8047BDF
:1024E000704700BF006034400000FF7F0000FF1F06
:1024F00080B582B000AF786039607B6893F90100E5
:102500007B681B783A681946FFF712FA00BF083754
:10251000BD4680BD80B582B000AF78607B6893F91E
:1025200001301846FFF7E0F97B6893F9013000218C
:102530001846FFF727F900BF0837BD4680BDFFFFEB
:1025400080B588B000AF134BD3F8D035FB61114A8A
:10255000FB69C2F8D435FFF7FFF80346FB7697F91D
:102560001B301846FFF734F997F91B301846FFF770
:102570001DF9786100233B71FB69BB607B691B69B6
:102580003B613B1D19467869FFF7D4FD00BF20373A
:10259000BD4680BD0060344080B588B000AF134BAD
:1025A000D3F81036FB61114AFB69C2F81436FFF705
:1025B000D3F80346FB7697F91B301846FFF708F966
:1025C00097F91B301846FFF7F1F8786101233B714A
:1025D000FB69BB607B691B693B613B1D19467869E0
:1025E000FFF7A8FD00BF2037BD4680BD0060344026
:1025F00080B588B000AF224BD3F81034FB61204A7D
:10260000FB69C2F81434FFF7A7F80346FB7697F985
:102610001B301846FFF7DCF897F91B301846FFF718
:10262000C5F87861FB6903F00803002B03D0154B54
:1026300001221A7007E0FB6903F00203002B02D0AD
:10264000104B00221A7002233B71FB69BB607B694F
:102650001B693B613B1D19467869FFF76BFDFB6900
:1026600003F44003002B06D0FFF792FD7B699B68C3
:102670001846FFF72DFE00BF2037BD4680BD00BFC6
:1026800000603440E9DF002280B588B000AF164B0F
:10269000D3F80032FB61144AFB69C2F80432FFF739
:1026A0005BF80346FB7697F91B301846FFF790F866
:1026B00097F91B301846FFF779F8786103233B71CF
:1026C000FB69BB60094BFB607B691B693B613B1D80
:1026D00019467869FFF72EFD034B0122C3F83C220F
:1026E00000BF2037BD4680BD0060344040623440AA
:1026F00080B588B000AF134BD3F80033FB61114AAB
:10270000FB69C2F80433FFF727F80346FB7697F915
:102710001B301846FFF75CF897F91B301846FFF797
:1027200045F8786104233B71FB69BB607B691B69D9
:102730003B613B1D19467869FFF7FCFC00BF203761
:10274000BD4680BD0060344080B588B000AF214BED
:10275000D3F82033FB611F4AFB69C2F82433FEF72C
:10276000FBFF0346FB7697F91B301846FFF730F85E
:1027700097F91B301846FFF719F87861164B1B784C
:10278000DBB2012B08D1FB6903F08063002B03D07F
:10279000114B02221A700CE00F4B1B78DBB2032B9B
:1027A00007D1FB6903F00063002B02D00A4B002223
:1027B0001A7005233B71FB69BB607B691B693B6138
:1027C0003B1D19467869FFF7B5FC00BF2037BD46B1
:1027D00080BD00BF00603440E8DF002280B483B0D9
:1027E00000AF0346FB800A49FB881B0A9BB21A46CE
:1027F000FB88DBB21201134451F82330C3F34003CA
:10280000DBB218460C37BD465DF8047B704700BF4D
:102810000008404080B485B000AF0023FB60EFF3B8
:1028200010837B607B68FB600123BB60BB6883F324
:10283000108800BF0D4B1B68002B05D10C4B0022EC
:102840001A750B4B40221A75084B1B680133074A57
:102850001360FB683B603B6883F3108800BF00BFD8
:102860001437BD465DF8047B704700BF44E000228A
:10287000000D404080B485B000AF0023FB60EFF353
:1028800010837B607B68FB600123BB60BB6883F3C4
:10289000108800BF0F4B1B68002B04D00D4B1B682A
:1028A000013B0C4A13600B4B1B68002B05D10A4BF4
:1028B00000221A75084B80221A75FB683B603B6842
:1028C00083F3108800BF00BF1437BD465DF8047B5A
:1028D000704700BF44E00022000D404080B584B046
:1028E00000AF786039607B68FB60FB68044A1A605F
:1028F000386800F0B2F9002318461037BD4680BD95
:1029000054524F5080B485B000AF78607B68FB6054
:10291000FB6800221A60002318461437BD465DF894
:10292000047B704780B582B000AF7860396038684A
:1029300000F093F9002318460837BD4680BD80B5E6
:102940008AB000AFF8600B467A607B817B893B835D
:102950007B687B610123BB8307F114033B6207F1B2
:102960001C03184600F01CFAFFF754FF7B897968B6
:10297000184600F0D9F9FFF77DFF002318462837E5
:10298000BD4680BD80B584B000AFF8600B467A606C
:102990007B817B891846FFF721FF0346DAB27B680B
:1029A0001A70002318461037BD4680BD80B487B02A
:1029B00000AFF8600B467A607B817B891B0A9BB273
:1029C000DBB25B0103F1804303F580037B617B692C
:1029D0005B689AB27B681A80002318461C37BD4694
:1029E0005DF8047B704780B487B000AFF86008469C
:1029F00011461A4603467B810B463B811346FB80FA
:102A00003A89FB881340FB82B7F90830DB431AB2DE
:102A1000B7F9063013401BB2BB827B891B0A9BB2FD
:102A2000DBB25B0103F1804303F580033B61BB8AAA
:102A30001A04FB8A1A433B699A60002318461C3724
:102A4000BD465DF8047B704780B487B000AF786006
:102A50000B467B8013467B700023FB820023BB82E6
:102A60007B8823F0FF037B827B88DBB23B823B8A3F
:102A7000012202FA03F3FB817B78002B02D1FB8950
:102A8000BB8201E0FB89FB827B8A1B0A9BB2DBB223
:102A90005B0103F1804303F58003BB60BB8A1A042A
:102AA000FB8A1A43BB689A60002318461C37BD4650
:102AB0005DF8047B704780B48BB000AFF8600846C7
:102AC00011461A4603467B810B463B811346FB8029
:102AD0007B891B0A9BB2DBB25B0103F1804303F5E8
:102AE00080037B627B6A1B683B623A89FB881340E8
:102AF0009BB2FB613B89DA43FB881340BB613B6AB5
:102B00007B617A69FB6913437B61BB69DB437A694B
:102B100013407B617B6A7A691A60002318462C3760
:102B2000BD465DF8047B704780B487B000AFF860A5
:102B30000B467A607B817B891B0A9BB2DBB25B010F
:102B400003F1804303F580037B617B695B68C3F31A
:102B50000F439AB27B681A80002318461C37BD4683
:102B60005DF8047B704780B487B000AFF8600B4617
:102B70007A607B817B891B0A9BB2DBB25B0103F12C
:102B8000804303F580037B617B695B68C3F30F437C
:102B90007B827B89DBB2012202FA03F33B827A8AD1
:102BA0003B8A13409BB23A8A9A4203D17B68012246
:102BB0001A7002E07B6800221A70002318461C3746
:102BC000BD465DF8047B704780B487B000AFF86005
:102BD000084611461A4603467B810B463B81134645
:102BE000FB803A89FB881340FB82B7F90830DB434E
:102BF0001AB2B7F9063013401BB2BB827B891B0A9D
:102C00009BB2DBB25B0103F1804303F580033B61C0
:102C1000BB8A1A04FB8A1A433B69DA600023184610
:102C20001C37BD465DF8047B704780B582B000AFAD
:102C300078600B467B8013467B707B8823F0FF0314
:102C40009BB27A88D2B291B27A78184600F030F806
:102C5000002318460837BD4680BD80B584B000AF5C
:102C60007860786800F09CF87B68BB60FFF7D2FD65
:102C70000023FB8111E0BB685A68FB89DB00134429
:102C80009888BB685A68FB89DB0013441B681946A7
:102C900000F04AF8FB890133FB81BB681B88FA8985
:102CA0009A42E8D3FFF7E6FD00BF1037BD4680BD6E
:102CB00080B487B000AF0346FB800B46BB80134651
:102CC000FB70FB881B0A9BB2DBB25B0103F1804304
:102CD00003F580033B61BB88012202FA03F3FB602A
:102CE0003B69DB687B61FB78012B0AD1FB681B0425
:102CF000DB437A6913407B617A69FB6813437B612C
:102D000009E0FB68DB437A6913407B61FB681B04C5
:102D10007A6913437B613B697A69DA6000BF1C37CB
:102D2000BD465DF8047B704780B483B000AF0346B6
:102D30003960FB803B6803F48033002B1CD01749BB
:102D4000FB881B0A9BB21A46FB88DBB212011A44AD
:102D500051F8223023F4803341F822300F48FB88A9
:102D60001B0A9BB21946FB88DBB23A6822F4803218
:102D700009010B4440F823200849FB881B0A9BB239
:102D80001A46FB88DBB2120113443A6841F823204B
:102D900000BF0C37BD465DF8047B7047000840401B
:102DA00080B588B000AF7860594B7B61594B3B616F
:102DB0000023FB619FE00023BB6195E07B685A68BC
:102DC000FB69DB0013449A885349BB6931F813301F
:102DD0009A4240F086807B685A68FB69DB001344A6
:102DE0001B6803F0F853FB60FB68B3F1807F03D0EE
:102DF000FB68B3F1106F39D17B6993F84C3CDAB2C0
:102E00000121BB6901FA03F3DBB21340DBB2002BF3
:102E100013D1012003F0C2FA7B6993F84C3CDAB27B
:102E20000121BB6901FA03F3DBB21343DAB27B6918
:102E300083F84C2C012003F061FA3B69BA69203217
:102E400013F81230C3F3C013DBB2002B49D13A6937
:102E5000BB6903F1200112F8113043F0800302F83E
:102E600011300121C82003F003F93AE07B6993F89F
:102E70004C3CDAB20121BB6901FA03F3DBB2134027
:102E8000DBB2002B15D0012003F088FA7B6993F8A0
:102E90004C3CDAB20121BB6901FA03F3DBB2DB433C
:102EA000DBB21340DAB27B6983F84C2C012003F0CB
:102EB00025FA3B69BA69203213F81230C3F3C01304
:102EC000DBB2002B0DD03A69BB6903F1200112F887
:102ED000113023F0800302F811300121C82003F0E3
:102EE000C7F8BB690133BB61BB69022B7FF666AFD4
:102EF000FB690133FB617B681B881A46FB699342BF
:102F0000FFF459AF00BF00BF2037BD4680BD00BFF2
:102F100000E0014000202040987E000280B483B091
:102F200000AF0346FB7197F90730002B0CDBFB79F0
:102F300003F01F02074997F907305B09012000FAE7
:102F400002F2603341F8232000BF0C37BD465DF824
:102F5000047B704700E100E080B483B000AF03461B
:102F60003960FB7197F90730002B0ADB3B68DAB256
:102F70000C4997F907301201D2B20B4483F80023B1
:102F80000AE03B68DAB20849FB7903F00F03043B1F
:102F90001201D2B20B441A7600BF0C37BD465DF861
:102FA000047B704700E100E000ED00E080B483B0F6
:102FB00000AFEFF303837B607B683B603B88C3F328
:102FC00008039BB2DBB2103BDBB25BB218460C3796
:102FD000BD465DF8047B704780B483B000AF034604
:102FE0003960FB7197F9073004493A6841F82320AA
:102FF00000BF0C37BD465DF8047B704748E00022F7
:1030000080B483B000AF0346FB7197F90730044AE0
:1030100052F8233018460C37BD465DF8047B7047E4
:1030200048E0002280B483B000AF0346FB710C4936
:1030300097F9073003F5C65251F8223023F4803354
:1030400041F82230064A97F9073003F5C65352F883
:10305000233000BF0C37BD465DF8047B704700BFCE
:103060000060004080B584B000AF0346FB7197F963
:1030700007301846FFF7D6FFBFF35F8F00BF97F901
:103080000730FB60FB6803F01F02074997F9073020
:103090005B09012000FA02F2603341F8232000BFEF
:1030A0001037BD4680BD00BF00E100E080B584B0B0
:1030B00000AF0346B9607A60FB7397F90F30B968C7
:1030C0001846FFF749FF97F90F3079681846FFF760
:1030D00083FF00BF1037BD4680BDFFFF80B485B0C1
:1030E00000AF0346FB7197F90730FB60FB6803F004
:1030F0001F020749FB685B09012000FA02F241F850
:10310000232000BF1437BD465DF8047B704700BF25
:1031100000E100E080B582B000AF0346FB7197F993
:1031200007301846FFF79EFF97F907301846FFF75C
:10313000D5FF00BF0837BD4680BDFFFF80B485B016
:1031400000AF0346FB7197F90730FB60FB6803F0A3
:103150001F020B4997F907305B09012000FA02F2C0
:10316000203341F82320BFF34F8F00BFBFF36F8F91
:1031700000BF00BF1437BD465DF8047B704700BF39
:1031800000E100E080B584B000AF0346B9607A602A
:10319000FB7397F90F307A68B9681846FFF786FF16
:1031A00097F90F301846FFF7B5FF00BF1037BD463F
:1031B00080BDFFFF80B588B000AF786039607B6864
:1031C000FB613B681B781A46344B13441B021A46BA
:1031D000FB691A61FB693A681A603B689A68FB6987
:1031E0005A603B681A7BFB691A723B68DA69FB69B3
:1031F0005A633B681A6AFB69DA63FB6900229A63C7
:103200000023BB61EFF31083FB60FB68BB6101230C
:103210003B613B6983F3108800BF214B5A683B68D0
:103220001B78C3F10903012101FA03F3DB431C49B5
:1032300013404B601A4B5B680121962002F018FF87
:10324000BB697B617B6983F3108800BF3968F869CB
:1032500000F0ECF8FB6900225A61FB6900229A61D8
:10326000FB690022DA61FB6900221A62FB69002215
:1032700083F82920FB69002283F82A20FB690022B9
:1032800083F82B20FB69002283F82C20FB69054A78
:10329000DA60002318462037BD4680BDE025400097
:1032A000003020404349495280B588B000AF786073
:1032B0007B68FB610121F86900F087F8FB691B69F5
:1032C0000022DA71FB690022DA60FB691B6893F95E
:1032D00011301846FFF732FFFB691B6893F90E3077
:1032E0001846FFF72BFFFB691B6893F9103018464F
:1032F000FFF724FFFB691B6893F90F301846FFF7AF
:103300001DFF0023BB61EFF31083FB60FB68BB6113
:1033100001233B613B6983F3108800BF0E4B5A6861
:10332000FB691B681B78C3F10903012101FA03F350
:10333000094913434B60084B5B680121962002F05A
:1033400097FEBB697B617B6983F3108800BF002314
:1033500018462037BD4680BD0030204080B586B07D
:1033600000AF78600B46FB707B689B6B7B617B6971
:10337000002B03D107F10C037B6106E07A6907F1AA
:103380000C0392E8030083E803007B68DA6B7B6937
:103390001A607B69FA781A717B685B6B7869984769
:1033A0007B689B6B002B08D07B689B6B1A4607F1F0
:1033B0000C0393E8030082E803007B68002283F893
:1033C0002B2000BF1837BD4680BD80B582B000AF4E
:1033D00078600B46FB70FB78002B09D07B681B697B
:1033E0000022DA717B681B681946786800F01EF8C5
:1033F0007B680022DA617B6893F826207B6883F87B
:1034000028207B689A697B681A627B68002283F8AF
:103410002C207B68002283F82A207B681B69B3225A
:10342000DA7100BF0837BD4680BDFFFF80B582B0AE
:1034300000AF786039607B681B691F221A707B6857
:103440001B695F221A707B681B69DF221A707B6818
:103450001B685B6A1A797B681B6962F01F02D2B233
:103460001A747B681B685B6ADA787B681B6962F098
:103470001F02D2B25A747B681B685B6A9B781B017F
:10348000DBB203F07003DAB27B681B6942F008021A
:10349000D2B29A707B681B685B6A1B78012B01D1E2
:1034A000052100E004217B681B685B6A5B785B0098
:1034B000DAB27B681B690A43D2B2DA707B681B6898
:1034C0005B681E4A934201D1F72200E077227B68B5
:1034D0001B695A717B681B6900229A717B681B69A2
:1034E000B322DA713B6893F911003B685B7B7A6821
:1034F0001946FFF747FE3B6893F90F003B685B7B7B
:103500007A681946FFF73EFE3B6893F910003B6866
:103510005B7B7A681946FFF735FE3B6893F90E002E
:103520003B685B7B7A681946FFF72CFE7B681B695A
:103530009F221A7000BF0837BD4680BD40420F0071
:1035400080B584B000AF78607B6893F82D30DBB233
:1035500083F00103DBB2002B34D07B689B69022B24
:1035600005D87B681A69137943F0400313717B68AF
:10357000DB69012B11D17B681A69137943F01003C1
:1035800013717B681A69137943F0080313717B6820
:103590001A69137923F0100313717B681B685B6A47
:1035A000DB79002B03D005217868FFF7D7FE7B6815
:1035B0001B69DB7CDBB2FB73FB7B7B68012283F83E
:1035C0002D2010E07B68DB69002B0CD07B681B682A
:1035D0005B6ADB79002B03D005217868FFF7BEFE1C
:1035E000786800F0A8F900BF1037BD4680BD80B5EF
:1035F00084B000AF7860C023FB607B6893F827300D
:10360000002B03D0786800F024FA63E07B6893F81D
:103610002930DBB283F00103DBB2002B5AD07B6888
:103620001B685B6ADB79002B10D07B6893F82B302A
:10363000DBB283F00103DBB2002B07D07B681B6A8F
:10364000002B03D005217868FFF788FE7B68DB69D3
:10365000002B12D07B685A697B681B6A1A447B680E
:103660001B6912789A747B681B6A5A1C7B681A6201
:103670007B68DB695A1E7B68DA617B68DB69002B3B
:1036800028D17B681A69D37923F08003D3710AE0CB
:103690007B681B69DB79C3F3C013DBB2002B05D059
:1036A000FB68013BFB60FB68002BF1D17B681B686A
:1036B00093F910301846FFF7B5FC7B681B6893F947
:1036C00010301846FFF72AFC7B681A69D37943F05B
:1036D0004003D37100BF1037BD4680BD80B584B0B4
:1036E00000AF7860C023FB607B681B685B6ADB7996
:1036F000002B03D005217868FFF730FE7B6893F834
:103700002930DBB2002B0DD07B6893F82730012BDA
:1037100008D17B6893F83030DBB283F00103DBB271
:10372000002B33D17B68DB69002B2FD17B6893F8AA
:103730002A30DBB2002B1BD07B681B6893F90F305B
:103740001846FFF7FBFC7B681A69D37943F08003C6
:10375000D3717B681B6904225A707B681A6953799C
:1037600023F0010353717B68012283F82C200DE0C4
:103770007B681B695B7ADAB27B681B6922F00802FE
:10378000D2B25A727B681B6908225A707B681A6928
:10379000D37923F04003D3710AE07B681B69DB799E
:1037A000C3F38013DBB2002B06D0FB68013BFB6048
:1037B000FB68002BF1D100BF00BF1037BD4680BDB4
:1037C00080B584B000AF78607B681B695B7ADBB240
:1037D00003F01F03BB737B681B695B7ADAB27B68FB
:1037E0001B6922F01F02D2B25A72BB7B03F00303A3
:1037F000BA7B02F01002002A09D07A681269527866
:10380000C2F38012D2B2012A01D0012200E00022CC
:103810001343002B0CD07B68012283F82B2001215D
:103820007868FFF7D2FD01217868FFF797FD7EE009
:10383000BB7B03F01003002B30D07B681B695B78E7
:10384000C3F38013DBB2012B28D17B68012283F8FC
:103850002B207B681B6908225A707B681B685B6A97
:103860001A787B681B685B6A5B791B01DBB21343C8
:10387000DAB27B681B685B6A9B79DB01DBB21343BE
:10388000DAB27B681B6942F00202D2B2DA707B685E
:103890001A69537943F00103537148E0BB7B03F08D
:1038A0000803002B0AD17B6893F82C30DBB2002B85
:1038B0002DD0BB7B03F00403002B28D00123FB7326
:1038C0007B6893F82B30DBB283F00103DBB2002B73
:1038D0000ED07B6893F82930DBB2002B01D0022395
:1038E00000E00323FB737B681B69B322DA7108E0F5
:1038F000BB7B03F00803002B03D000217868FFF79F
:1039000064FDFB7B19467868FFF728FD0FE0BB7B61
:1039100003F00403002B0AD07B681B685B6ADB7929
:10392000002B04D004217868FFF718FDFFE700BFE3
:103930001037BD4680BD80B582B000AF78607B682F
:10394000DB69032B06D17B681A69137943F04003C6
:1039500013715CE07B68DB69022B12D17B681A690A
:10396000137943F0100313717B681A69137943F0DC
:10397000080313717B681A69137923F0100313711C
:1039800045E07B68DB69012B41D17B6893F82A30E5
:10399000DBB2002B2DD07B681B6893F90F301846E3
:1039A000FFF7CCFB7B681A69D37943F08003D371AE
:1039B0007B681A69137943F0100313717B681A69E5
:1039C000137923F0080313717B681A69137923F0C4
:1039D000100313717B681B6904225A707B681A6993
:1039E000537923F0010353717B68012283F82C2063
:1039F0000DE07B681B695B7ADAB27B681B6922F099
:103A00000802D2B25A727B681B6908225A707B681E
:103A10001A697B6859697B681B6A0B44D27CD2B2F5
:103A20001A707B681B6A5A1C7B681A627B68DB69A8
:103A30005A1E7B68DA617B68DB69002B05D17B68E5
:103A40001A69137923F04003137100BF0837BD468C
:103A500080BD80B485B000AF78607B6893F8263075
:103A6000032B0DD17B6893F82830022B08D17B689B
:103A700093F83030DBB283F00103DBB2002B18D1B6
:103A80007B6893F82430FB737B681B69FA7B9A741C
:103A90007B6893F828300133DAB27B6883F82820FA
:103AA0007B6893F82730013BDAB27B6883F82720E4
:103AB00000BF00BF1437BD465DF8047B704780B57A
:103AC00082B000AFFFF772FA03461846FFF7AAFA72
:103AD000FFF76CFA0346FB7197F907301846FFF7BA
:103AE0008FFA38603868FFF72BFD00BF0837BD46F6
:103AF00080BD80B582B000AFFFF758FA0346184684
:103B0000FFF790FAFFF752FA0346FB7197F9073077
:103B10001846FFF775FA38603868FFF768FD00BF90
:103B20000837BD4680BD80B582B000AFFFF73EFAD2
:103B30000346FB7197F907301846FFF761FA3860C2
:103B40003868FFF7CBFDFFF731FA03461846FFF759
:103B500069FA00BF0837BD4680BD80B582B000AFAE
:103B6000FFF724FA0346FB7197F907301846FFF771
:103B700047FA38603868FFF723FEFFF717FA034665
:103B80001846FFF74FFA00BF0837BD4680BDFFFF5C
:103B900080B483B000AF03463960FB7197F90730FA
:103BA000002B0ADB3B68DAB20C4997F907301201A7
:103BB000D2B20B4483F800230AE03B68DAB208492A
:103BC000FB7903F00F03043B1201D2B20B441A76C7
:103BD00000BF0C37BD465DF8047B704700E100E094
:103BE00000ED00E080B483B000AFEFF303837B60AF
:103BF0007B683B603B88C3F308039BB2DBB2103B9E
:103C0000DBB25BB218460C37BD465DF8047B7047EB
:103C100080B483B000AF03463960FB7197F9073079
:103C200004493A6841F8232000BF0C37BD465DF8CF
:103C3000047B704748E0002280B483B000AF0346A5
:103C4000FB7197F90730044A52F8233018460C37B5
:103C5000BD465DF8047B704748E0002280B483B025
:103C600000AF0346FB710C4997F9073003F5C652C4
:103C700051F8223023F4803341F82230064A97F974
:103C8000073003F5C65352F8233000BF0C37BD464A
:103C90005DF8047B704700BF0060004080B584B0D1
:103CA00000AF0346FB7197F907301846FFF7D6FFC0
:103CB000BFF35F8F00BF97F90730FB60FB6803F02D
:103CC0001F02074997F907305B09012000FA02F249
:103CD000603341F8232000BF1037BD4680BD00BFD0
:103CE00000E100E080B584B000AF0346B9607A60BF
:103CF000FB7397F90F30B9681846FFF749FF97F93A
:103D00000F3079681846FFF783FF00BF1037BD46B4
:103D100080BDFFFF80B485B000AF0346FB7197F90B
:103D20000730FB60FB6803F01F020749FB685B0973
:103D3000012000FA02F241F8232000BF1437BD46EB
:103D40005DF8047B704700BF00E100E080B582B001
:103D500000AF0346FB7197F907301846FFF79EFF47
:103D600097F907301846FFF7D5FF00BF0837BD4663
:103D700080BDFFFF80B485B000AF0346FB7197F9AB
:103D80000730FB60FB6803F01F020B4997F907300F
:103D90005B09012000FA02F2203341F82320BFF32F
:103DA0004F8F00BFBFF36F8F00BF00BF1437BD46FA
:103DB0005DF8047B704700BF00E100E080B586B08D
:103DC00000AF786039607B687B613B6893F90220C3
:103DD0007B691A712B4A7B6993F9043003F5C6534A
:103DE00052F823303B61274A7B6993F9043003F58D
:103DF000C653002142F823103B689A687B699A6099
:103E00003B68DA687B69DA603B681A787B695A71CB
:103E10007B695B79FB731B4AFB7B0021D1543B68B8
:103E20001B791B01BB733B685B79DB01DAB2BB7B9F
:103E30001343BB733B68DA78BB7B1343BB731149F5
:103E4000FB7BBA7BCA540F497B6993F9043003F5B5
:103E5000C6533A6941F823207B6993F90430002B5B
:103E600008DB7B6993F904003B685B787A69194643
:103E7000FFF738FF7B69044A1A6000231846183799
:103E8000BD4680BD006000405543490080B584B008
:103E900000AF78607B68FB60FB6893F904301846DC
:103EA000FFF754FF002318461037BD4680BD80B58C
:103EB00084B000AF78607B68FB60FB6893F90430E6
:103EC000002B0CDBFB6893F904301846FFF752FF18
:103ED000FB6893F9043000211846FFF799FEFB6850
:103EE00000221A60002318461037BD4680BDFFFF30
:103EF00080B586B000AFFFF775FE0346BB7597F936
:103F000016301846FFF798FE38610023FB753B69B1
:103F10005B79FB73174AFB7BD35CC3F30103DBB212
:103F2000BB73BB7B032B02D10123FB7504E097F924
:103F300016301846FFF792FE3B69002B0ED03B6906
:103F40009B68002B0AD03B695B79BB603B69DB68EF
:103F50007B603B699B683A1D10469847FB7D002BB0
:103F600004D097F916301846FFF778FE00BF1837CF
:103F7000BD4680BD0060004080B483B000AF034602
:103F80003960FB7197F90730002B0ADB3B68DAB226
:103F90000C4997F907301201D2B20B4483F8002381
:103FA0000AE03B68DAB20849FB7903F00F03043BEF
:103FB0001201D2B20B441A7600BF0C37BD465DF831
:103FC000047B704700E100E000ED00E080B483B0C6
:103FD00000AFEFF303837B607B683B603B88C3F3F8
:103FE00008039BB2DBB2103BDBB25BB218460C3766
:103FF000BD465DF8047B704780B487B000AF0346D0
:10400000FB712B4B1B6A7B61FB797A6922FA03F304
:1040100003F00F033B61FB79202B02D1254B1B687A
:104020003FE0234B93F82430DBB203F00F03FB6037
:10403000FA683B69134303F00803002B2AD0FB689E
:1040400003F00803002B06D0FB6803F007030322EC
:1040500002FA03F303E00122FB6802FA03F3FB60B8
:104060003B6903F00803002B06D03B6903F007030C
:10407000032202FA03F303E001223B6902FA03F38D
:104080003B610C4B1B68FA6803FB02F23B69B2FB15
:10409000F3F306E0074B1A68FB689A403B6922FA83
:1040A00003F318461C37BD465DF8047B704700BF1C
:1040B00000E00140D0E1002280B483B000AF0346AD
:1040C0003960FB7197F9073004493A6841F82320B9
:1040D00000BF0C37BD465DF8047B704748E0002206
:1040E00080B483B000AF0346FB7197F90730044AF0
:1040F00052F8233018460C37BD465DF8047B7047F4
:1041000048E0002280B483B000AF0346FB710C4945
:1041100097F9073003F5C65251F8223023F4803363
:1041200041F82230064A97F9073003F5C65352F892
:10413000233000BF0C37BD465DF8047B704700BFDD
:104140000060004080B584B000AF0346FB7197F972
:1041500007301846FFF7D6FFBFF35F8F00BF97F910
:104160000730FB60FB6803F01F02074997F907302F
:104170005B09012000FA02F2603341F8232000BFFE
:104180001037BD4680BD00BF00E100E080B584B0BF
:1041900000AF0346B9607A60FB7397F90F30B968D6
:1041A0001846FFF7E9FE97F90F3079681846FFF7D0
:1041B00083FF00BF1037BD4680BDFFFF80B485B0D0
:1041C00000AF0346FB7197F90730FB60FB6803F013
:1041D0001F020749FB685B09012000FA02F241F85F
:1041E000232000BF1437BD465DF8047B704700BF35
:1041F00000E100E080B582B000AF0346FB7197F9A3
:1042000007301846FFF79EFF97F907301846FFF76B
:10421000D5FF00BF0837BD4680BDFFFF80B485B025
:1042200000AF0346FB7197F90730FB60FB6803F0B2
:104230001F020B4997F907305B09012000FA02F2CF
:10424000203341F82320BFF34F8F00BFBFF36F8FA0
:1042500000BF00BF1437BD465DF8047B704700BF48
:1042600000E100E080B584B000AF0346B9607A6039
:10427000FB7397F90F307A68B9681846FFF786FF25
:1042800097F90F301846FFF7B5FF00BF1037BD464E
:1042900080BDFFFF80B584B000AF786039607B6877
:1042A000FB603B681B7C1A46012303FA02F2FB68A1
:1042B000DA603968F86800F0A9F93968F86800F040
:1042C000D5F9FB68034A1A60002318461037BD462B
:1042D00080BD00BF5450470080B485B000AF786007
:1042E0007B68FB60FB689B68FA68D2689A60002371
:1042F00018461437BD465DF8047B704780B485B01E
:1043000000AF78607B68FB60FB689B68FA68D268E6
:104310005A60002318461437BD465DF8047B704789
:1043200080B485B000AF78607B68FB60FB689B68F9
:10433000FA68D268DA60002318461437BD465DF883
:10434000047B704780B588B000AF78607B68FB6104
:10435000FB695B68DB69BB614FF000437B614FF039
:1043600000433B614FF00043FB60BB695B687A69C7
:1043700013437B61BB699B683A6913433B61BB692B
:10438000DB68FA681343FB60F86900F034F9B86041
:10439000FB699B683A695A61FB699B68FA689A6194
:1043A000FB699B687A691A61FB699B68BA69126943
:1043B0005A62FB699B68BA6952699A62BB6843F4A6
:1043C00025431946F86900F00BF9002318462037F9
:1043D000BD4680BD80B584B000AF78607B68FB606F
:1043E000F86800F008F9B860F86800F017FABB68E0
:1043F00043F425431946F86800F0F2F80023184604
:104400001037BD4680BD80B586B000AF786039609A
:104410007B687B61786900F0EEF838613B68013BAE
:10442000FB607B699B68FA689A667B699B68DB6ABC
:10443000C3F30003DBB2002B08D17B699B68FA68E9
:104440005A667B699B687A69D268DA603B6943F493
:1044500025431946786900F0C3F800231846183739
:10446000BD4680BD80B485B000AFF860B9607A60A9
:10447000062318461437BD465DF8047B704780B5A7
:1044800086B000AFF860B9601346FB71FB687B61D2
:10449000786900F0B0F838617B699968FB79BA688F
:1044A000013A12339B000B445A603B6943F42543A5
:1044B0001946786900F094F8002318461837BD466D
:1044C00080BD80B586B000AF786039607B687B6165
:1044D0007B699B685B6E3B613B690133FB603B68BA
:1044E000FA689A60786900F0E8F902463B685A6019
:1044F0003B6801221A70002318461837BD4680BD5C
:1045000080B485B000AF786039607B68FB60FB6881
:104510009B68DB6AC3F30003DBB21A463B681A717F
:10452000FB689B689A6C3B681A6000231846143736
:10453000BD465DF8047B704780B487B000AFF8607B
:10454000B9607A603B60FB687B617B69BA685A61DD
:104550007B697A68DA617B693A689A610023184658
:104560001C37BD465DF8047B704780B586B000AF50
:1045700078607B687B6100233B617B695B68DB69FA
:10458000FB607B695B6893F91230184600F067F9AD
:10459000FB6893F92430184600F061F9FB6893F941
:1045A0002530184600F05BF97B6900221A607869B3
:1045B00000F021F8B8607B699B687A69D2689A60DC
:1045C0007B699B6800225A63BB6843F42543194604
:1045D000786900F005F83B6918461837BD4680BD7C
:1045E00080B483B000AF7860396000BF0C37BD463F
:1045F0005DF8047B704780B483B000AF786000231F
:1046000018460C37BD465DF8047B704780B485B012
:1046100000AF786039607B683A685A607B68012235
:104620001A747B68DB68DBB2002B02D07B68002247
:104630001A743B681B7C1A460B4B13441B02FB602D
:10464000FA687B689A603B685A697B685A613B6884
:104650009A697B68DA617B6800229A6100BF14372F
:10466000BD465DF8047B70472032400080B58EB0B7
:1046700000AF786039603B68DB69BB6200237B6216
:10468000EFF310837B617B697B6201233B613B69B4
:1046900083F3108800BF604B1A693B681B7C194686
:1046A0004FF00043CB40DB435B4913400B615A4B57
:1046B0001B690121962001F0DBFC7B6AFB60FB6833
:1046C00083F3108800BF7B689B684FF425421A6013
:1046D0007B689B680022DA627B689B680022DA6351
:1046E0007B689B6800229A643B681B7A3B623B6A4A
:1046F000DB057B633B685B68013BFB613B681B78C8
:10470000032B03D17B6B43F480337B637B689B6813
:104710007A6BDA62786800F081F87B689B68BA6A25
:104720009269DA617B689B68BA6AD2691A627B68AF
:104730009B68FA699A667B689B68FA695A660023E7
:10474000BB61BB6A9B6B3B63786800F0CDF87B680C
:104750009B6800229A637B689B680022C3F88820CC
:10476000BB6A9B6B002B0DD1BB6A93F820305B03B7
:104770003A6B13433B63BB6A93F821305B073A6B98
:1047800013433B634FF4AA03FB62BB6A93F83030D8
:10479000002B02D04FF4A003FB627B689B68FA6A8F
:1047A0001A647B689B683A6B5A637B689B68BA693A
:1047B00042F003021A637B689B68BA6942F0010207
:1047C0001A637B689B687A68D268DA604AF20151A2
:1047D0007868FFF705FF3B6893F912003B685B7C44
:1047E0007A68194600F053F8BB6A93F92400BB6A53
:1047F00093F822307A68194600F049F8BB6A93F9B9
:104800002500BB6A93F823307A68194600F03FF818
:1048100000BF3837BD4680BD0030204080B483B033
:1048200000AF78607B689B684FF000421A617B683C
:104830009B684FF000425A617B689B684FF00042D2
:104840009A617B689B6800225A627B689B680022A1
:104850009A6200BF0C37BD465DF8047B704780B597
:1048600082B000AF0346FB7197F90730002B0ADBDB
:1048700097F907301846FFF7D1FC97F90730002168
:104880001846FFF719FC00BF0837BD4680BD80B54C
:1048900084B000AF0346B9607A60FB7397F90F30BC
:1048A000002B06DB97F90F307A68B9681846FFF7D6
:1048B000D9FC00BF1037BD4680BD80B584B000AFC5
:1048C00078607B689B68DB6AC3F3C353DBB2FB731E
:1048D0000020FFF791FBB860FB7BBA6822FA03F374
:1048E00018461037BD4680BD80B485B000AF7860F3
:1048F0007B685B68DB69FB60FB6893F8303003F032
:104900000103DBB2002B05D0FB689A6A7B689B68C9
:10491000013ADA64FB6893F8303003F00203DBB24B
:10492000002B05D0FB68DA6A7B689B68013A1A6540
:1049300000BF1437BD465DF8047B704790B589B061
:1049400000AFF8600B467A60FB72FB689B69FB6105
:10495000FB69002B03D107F11003FB6105E0FA6945
:1049600007F1100307CA83E80700FB69FA7A1A7196
:10497000FB697A689A60FB68DA69FB691A60FB6810
:104980005B69F8699847FB689B69002B08D0FB6856
:104990009B691C4607F1100393E8070084E80700B1
:1049A00000BF2437BD4690BD80B584B000AFFFF78F
:1049B0000DFB0346FB7397F90F301846FFF7A2FB78
:1049C00097F90F301846FFF78BFBB860BB685B6840
:1049D0001B78012B20D1B868FFF70DFE7860BB680B
:1049E0009B68BA68D2689A60BB689B6800229A6428
:1049F000BB689B680022DA64BB689B6800221A656A
:104A00007B6843F425431946B868FFF7E9FD97F939
:104A10000F301846FFF796FBBB685B69002B04D08C
:104A200000220021B868FFF789FF00BF1037BD469C
:104A300080BDFFFF80B483B000AF03463960FB71D7
:104A400097F90730002B0ADB3B68DAB20C4997F97B
:104A500007301201D2B20B4483F800230AE03B680E
:104A6000DAB20849FB7903F00F03043B1201D2B21A
:104A70000B441A7600BF0C37BD465DF8047B7047C7
:104A800000E100E000ED00E080B483B000AFEFF3A0
:104A900003837B607B683B603B88C3F308039BB266
:104AA000DBB2103BDBB25BB218460C37BD465DF89B
:104AB000047B704780B483B000AF03463960FB715C
:104AC00097F9073004493A6841F8232000BF0C37B2
:104AD000BD465DF8047B704748E0002280B483B097
:104AE00000AF0346FB710C4997F9073003F5C65236
:104AF00051F8223023F4803341F82230064A97F9E6
:104B0000073003F5C65352F8233000BF0C37BD46BB
:104B10005DF8047B704700BF0060004080B584B042
:104B200000AF0346FB7197F907301846FFF7D6FF31
:104B3000BFF35F8F00BF97F90730FB60FB6803F09E
:104B40001F02074997F907305B09012000FA02F2BA
:104B5000603341F8232000BF1037BD4680BD00BF41
:104B600000E100E080B584B000AF0346B9607A6030
:104B7000FB7397F90F30B9681846FFF75BFF97F999
:104B80000F3079681846FFF795FF00BF1037BD4614
:104B900080BDFFFF80B485B000AF0346FB7197F97D
:104BA0000730FB60FB6803F01F020749FB685B09E5
:104BB000012000FA02F241F8232000BF1437BD465D
:104BC0005DF8047B704700BF00E100E080B582B073
:104BD00000AF0346FB7197F907301846FFF79EFFB9
:104BE00097F907301846FFF7D5FF00BF0837BD46D5
:104BF00080BDFFFF80B485B000AF0346FB7197F91D
:104C00000730FB60FB6803F01F020B4997F9073080
:104C10005B09012000FA02F2203341F82320BFF3A0
:104C20004F8F00BFBFF36F8F00BF00BF1437BD466B
:104C30005DF8047B704700BF00E100E080B584B000
:104C400000AF0346B9607A60FB7397F90F307A685A
:104C5000B9681846FFF786FF97F90F301846FFF737
:104C6000B5FF00BF1037BD4680BDFFFF80B590B0D7
:104C700000AF786039607B68BB6300237B63BB6BEC
:104C800000221A7000233B63EFF31083BB61BB6902
:104C90003B630123FB61FB6983F3108800BF684B12
:104CA0009B68674A23F010039360654B9B68012162
:104CB000962001F0DDF93B6B3B623B6A83F3108881
:104CC00000BF604B03F580531A46136843F48033EA
:104CD0001360386800F03CFA386800F06FFA386802
:104CE00000F07EFB3B689B8D1AB2574B1A803B68E5
:104CF000DB8E1AB2544B5A803B685A8D524B9A80C5
:104D00003B689A8E504BDA800023FB6317E0FA6B06
:104D100013469B0013449B003A68D018FA6B134665
:104D20005B0013449B0058333A6813440433FA6B16
:104D3000D2B2194600F09EFCFB6B0133FB63FB6BA8
:104D4000012BE4D9386800F09BFD3E4B03F58053FE
:104D50001A464FF40073C2F8C8333A4B03F5805338
:104D60001A464FF00223C2F8CC33364B03F580537A
:104D70001A46364BC2F8D0333B68DA6FBB6B5A60C9
:104D80003B68D3F88020BB6B9A60BB6B3A68DA60F3
:104D90002D4ABB6B93603B68DA8E3B689B8E134455
:104DA0009BB201339AB2274BC2F30A0291B203F5C8
:104DB00080531A46D2F8503261F30A03C2F85032D7
:104DC000BB6BDB68D3F88430FB62FB6ADB68BB62D9
:104DD000BB6A9B681B68BA6A1068BA6A5268114657
:104DE000984778637B6B002B06D1786800F016FE3D
:104DF000BB6B01221A701EE000237B62EFF310836D
:104E0000FB60FB687B6201233B613B6983F3108895
:104E100000BF0B4B9B680A4A43F010039360084B9A
:104E20009B680121962001F023F97B6A7B617B69F5
:104E300083F3108800BF7B6B18464037BD4680BDAA
:104E40000030204000203440ECDF002280808000D1
:104E500080B58AB000AF78607B687B6200233B62DC
:104E6000494B03F580531B68C3F30003DBB2002BEF
:104E700002D0786800F00CF97B6ADB68D3F88430E4
:104E8000FB61FB69DB68BB61BB699B685B68BA69F6
:104E900012681046984738623B4B03F580539B6974
:104EA000C3F30023DBB2002B02D040F2EE3367E005
:104EB0007B6ADB6893F97730002B06DB7B6ADB6863
:104EC00093F977301846FFF795FE7B6ADB6893F914
:104ED0007830002B06DB7B6ADB6893F97830184664
:104EE000FFF788FE7B6ADB6893F97930002B06DBDD
:104EF0007B6ADB6893F979301846FFF77BFE224B1B
:104F000003F580531A460023C2F840341E4B03F5C4
:104F100080531A460023C2F844341B4B03F58053D8
:104F20001A46136823F001031360174B03F58053EF
:104F30001A46136823F48033136000237B61EFF378
:104F40001083BB60BB687B610123FB60FB6883F35C
:104F5000108800BF0D4B9B680C4A43F01003936010
:104F60000A4B9B680121962001F082F87B693B6126
:104F70003B6983F3108800BF7B6A00221A703B6A8A
:104F800018462837BD4680BD002034400030204000
:104F900080B586B000AF78607B687B6100233B61A1
:104FA0007B69DB68D3F88430FB60FB68DB68BB603F
:104FB000BB689B689B68BA6812681046984738615E
:104FC000104B03F580531A46136843F48073136043
:104FD0000C4B03F580531A46136843F0010313602A
:104FE000084B03F580531A46D2F8403443F00103CE
:104FF000C2F840347B6902221A703B6918461837A0
:10500000BD4680BD0020344080B588B000AFF86058
:10501000B9601346FB71FB68FB611C4AFB791B02FC
:10502000134403F58A5310331B68C3F30043DBB208
:1050300083F00103DBB2BB61FB795A00BB69134407
:105040001B02BA68928813449A00104B13447B6188
:10505000BB681968BB68DB889B001A46786901F059
:10506000FFFB0A4AFB79B96901F00101C9B21B02D1
:10507000134403F58A5310331A6861F310421A601F
:10508000002318462037BD4680BD00BF00203440B5
:1050900080B586B000AF786000237B617B68DB68F9
:1050A000D3F884303B613B69DB68FB60FB689B683D
:1050B000DB68FA6812681046984778617B69002BB4
:1050C00001D07B693EE0214B03F58053D3F80031DA
:1050D000C3F30003DBB2002B02D040F2EE3331E029
:1050E0001A4B03F58053D3F80032C3F30003DBB24D
:1050F000002B02D040F2EE3324E0144B03F5805332
:10510000D3F8C033C3F30003DBB2002B02D040F26C
:10511000EE3317E00D4B03F580531B68C3F30023F8
:10512000DBB2002B02D040F2EE330BE0074B03F56D
:1051300080531A46136823F0010313607B68012231
:105140001A707B6918461837BD4680BD0020344070
:1051500080B489B000AF78607B68D3F88430FB619D
:105160007B6893F83C30032B01D0002301E04FF41F
:105170008053BB61FB691B79002B02D14FF4807314
:1051800000E000237B6140233B61FB695B7903F016
:105190003F03FB60BA697B691A433B691A430649BE
:1051A000FB68134301F58052C2F8503400BF243726
:1051B000BD465DF8047B70470020344080B584B064
:1051C00000AF78607B68D3F88430FB607B6893F82D
:1051D0004030002B07D1294B03F580531A4600239A
:1051E000C2F8E43307E0254B03F580531A464FF429
:1051F000BC73C2F8E433214B03F580531A460023F5
:10520000C2F80434FB681B78FB72FB685B78BB72E6
:10521000FB689B787B7297F90B30B3F1FF3F08D0A6
:105220007B6803F1280297F90B301146184600F00D
:1052300063F897F90A30B3F1FF3F08D07B6803F1B8
:10524000320297F90A301146184600F073F897F9C0
:105250000930B3F1FF3F0CD07B6803F132017B686A
:1052600003F128027B6893F83F3097F9090000F0BA
:105270007FF800BF1037BD4680BD00BF002034401E
:1052800080B483B000AF0346FB710B46BB7113467D
:105290007B717B79002B16D1BB79072B0CD0BB79A6
:1052A000134A52F823301A68BB79114951F8233058
:1052B00042F010021A6006E00E4B03F580531A46C6
:1052C0000123C2F8283497F90730094A52F82330ED
:1052D0001968BA7997F90730054850F823300A431E
:1052E0001A6000BF0C37BD465DF8047B704700BFF5
:1052F000140000220020344080B582B000AF034685
:105300003960FB713B681A7A97F907300221184619
:10531000FFF7B6FF3B68DB88054AC3F30A0302F5D3
:105320008052C2F8183400BF0837BD4680BD00BFA8
:105330000020344080B582B000AF03463960FB7175
:105340003B681A7A97F9073000211846FFF798FF53
:105350003B68DB88054AC3F30A0302F58052C2F8B2
:10536000083400BF0837BD4680BD00BF0020344070
:1053700080B584B000AFB9607A601A460346FB730B
:105380001346BB73BA7B97F90F3007211846FFF716
:1053900077FF7B689B881A040F4B13407A6852880A
:1053A000C2F30A020D49134301F58052C2F82034BA
:1053B000BB689B881A04084B1340BA685288C2F332
:1053C0000A020649134301F58052C2F8103400BFA7
:1053D0001037BD4680BD00BF0000FF0700203440ED
:1053E00080B483B000AF78607B685B8E1A04244B76
:1053F00013407A68128DC2F30A022249134301F561
:10540000805253601F4B03F580531A464FF001132F
:1054100093607B689B8D01331A04194B13407A68A3
:10542000528DC2F30A021749134301F580521361EA
:105430007B68DB8E01331A04114B13407A68928E1D
:10544000C2F30A020F49134301F58052D3607B680F
:1054500093F846301A047B6893F845301B021344D6
:105460007A6892F844201146064A0B4402F58052AD
:10547000536100BF0C37BD465DF8047B704700BF29
:105480000000FF070020344080B487B000AF786090
:105490000B46FB7000237B617B681B7A002B31D0AD
:1054A0004FF480537B617B681B7A012B06D100236C
:1054B000FB607B685B7A1B043B610AE04FF47F036F
:1054C000FB607B685B7A1B0403F47F0343F080730B
:1054D0003B61184AFB781B02134403F589531433CC
:1054E0003A691A60134AFB781B02134403F5895387
:1054F0001833FA681A60104B1A68FB7802320F49A9
:1055000041F823200B49FB787A6903321B020B44D4
:1055100003F589531A60074AFB7811331B021344C1
:10552000043301221A6000BF1C37BD465DF8047BBE
:10553000704700BF0020344000E00022F8DF002266
:1055400080B588B000AFF860B9607A60FB681B7BFB
:10555000184600F009FA0346FB83FB689B68FA8B48
:1055600002FB03F3DB08BB617B6800221A807B68C7
:1055700000225A807B6800229A807B680022DA80B1
:10558000FB8B7A68B968F86800F096FABB685B88AC
:10559000FB827B681B881A46FB8B02FB03F3DA084D
:1055A0007B689A60FB689B7B002B07D07B689B68BD
:1055B000FA68D28803FB02F27B689A607B689B687A
:1055C00003F03F03002B07D07B689B6823F03F0369
:1055D00003F140027B689A60254BDB881A46B7F9D5
:1055E00016309A421DDBB7F91630002B19DB204B21
:1055F000DB881A46B7F91630D31AFA68D288934274
:1056000007DA1B4BDA88FB8AD31A9AB27B685A8076
:1056100003E0FB68DA887B685A807B68FA8ADA8064
:1056200022E0B7F91630002B1ADAFB68DB881A463D
:10563000B7F916301344002B12DDFB68DA88FB8AB9
:1056400013449AB27B685A807B68DB68B7F91620EE
:105650005242B96901FB02F21A447B68DA6003E046
:105660007B6800225A8000BF00BF2037BD4680BD46
:10567000ECDF002280B58EB000AFF860B960134651
:10568000FB71FB681B7B184600F06EF903467B62DA
:10569000FB689B687A6A02FB03F3DB087B63FB68A9
:1056A0001B68002B10D1714AFB791B02134403F5D0
:1056B000895301221A606D4AFB7911331B0213448E
:1056C000043300221A60CDE0FB681B7B1A46684B4E
:1056D0009B5C1A466549FB7912071B020B4403F5D4
:1056E00088531C331A6007F114031A46B968F86826
:1056F000FFF726FF5D49FB793A6A1B020B4403F56D
:1057000088530C331A60FB685B7B002B02D07B6BE9
:105710005B427B63FB689B7B002B15D0FB681B8A7D
:105720003B63524AFB791B02134403F58853103341
:1057300000221A60FB8A1A46FB681B8A02FB03F3ED
:10574000FB62FB6ABB620FE0FB8A3B637A6B4749F3
:10575000FB7912041B020B4403F5885310331A60C3
:10576000FB8AFB62FB6ABB623B6B013B1A04414B49
:105770001340FA699209013A92B23C48F9791A4306
:105780000B02034403F5885318331A603A4BB3F9FC
:1057900000301A46B7F9183013441A04354B134039
:1057A000BA8AC2F30A023148F9791A430B02034458
:1057B00003F5895308331A602F4BB3F900301A46AA
:1057C000B7F9183013441A042A4B1340BA8AC2F3AB
:1057D0000A022648F9791A430B02034403F5895358
:1057E00010331A60FB6AC3F30A02234BB3F9023089
:1057F0001946B7F91A300B4419041E4B0B401B48CD
:10580000F9791A430B02034403F5895304331A60F0
:10581000BB6AC3F30A02184BB3F902301946B7F951
:105820001A300B441904134B0B401048F9791A43F2
:105830000B02034403F589530C331A60FB791946B4
:10584000B868FFF721FE094AFB791B02134403F5F0
:105850008A53103300221A60084B01221A70074B3A
:1058600001225A703837BD4680BD00BF0020344049
:10587000240000220000FF07ECDF002210000022BD
:1058800080B487B000AF78607B68D3F88430FB6069
:1058900000237B6100233B617B6893F83C301A4610
:1058A0002E4B9B5C1B037B617B6893F83C301A4654
:1058B0002B4B9B5C1B043B617B6893F83D30012BB9
:1058C00003D17B6943F080537B617B6893F83E3062
:1058D000012B03D17B6943F080737B617B6893F874
:1058E0003C30032B03D17B6943F400737B617B68FD
:1058F00093F85830002B1CD0FB689B79022B14D1F5
:10590000FB68DB791B0343F40012FB681B7A1B0264
:105910001A43FB685B7A1B011343FA68927A1343BC
:105920001A463B6913433B6103E03B6943F4801330
:105930003B610C4B03F580531A467B69C2F8C433B4
:10594000084B03F580531A463B69C2F8D43300BFB5
:105950001C37BD465DF8047B704700BF3C00002249
:10596000400000220020344080B483B000AF0346E2
:10597000FB71FB79044A32F8133018460C37BD46E8
:105980005DF8047B704700BF2C00002280B584B016
:1059900000AF1D4B9B68FB601C4B1B6801331B4A0F
:1059A00013601A4B1B68002B05D1194B00221A609B
:1059B000174B00225A60174B01221A70154B012217
:1059C0005A70FB685B68002B09D003233B71FB68AE
:1059D0009B68BB60FB685B683A1D104698470E4B9E
:1059E00003F580531A46D2F8483443F00103C2F855
:1059F0004834FFF749F803461846FFF76FF800BF31
:105A00001037BD4680BD00BFECDF002200E0002261
:105A1000F8DF0022100000220020344080B582B060
:105A200000AF7860234B03F580531A460623C2F873
:105A30004034204B03F580531A460723C2F8443400
:105A40007B68DB6893F97730002B0BDB7B68DB68C6
:105A500093F977007B68DB6893F874307A681946AD
:105A6000FFF7ECF87B68DB6893F97830002B0BDBF1
:105A70007B68DB6893F978007B68DB6893F87530A6
:105A80007A681946FFF7DAF87B68DB6893F97930B2
:105A9000002B0BDB7B68DB6893F979007B68DB68A4
:105AA00093F876307A681946FFF7C8F800BF0837D0
:105AB000BD4680BD0020344080B489B000AFF8609E
:105AC000B9607A607B80BB681B88BB824F4B9B8828
:105AD0001A46B7F914309A421CDBB7F91430002B80
